{
	"Modulo 2/Copy_RedeSocialNotarizada2.sol": {
		"RedeSocialNotarizada": {
			"abi": [
				{
					"inputs": [
						{
							"internalType": "uint256",
							"name": "_preco",
							"type": "uint256"
						}
					],
					"stateMutability": "nonpayable",
					"type": "constructor"
				},
				{
					"inputs": [],
					"name": "criador",
					"outputs": [
						{
							"internalType": "address",
							"name": "",
							"type": "address"
						}
					],
					"stateMutability": "view",
					"type": "function"
				},
				{
					"inputs": [],
					"name": "dono",
					"outputs": [
						{
							"internalType": "address",
							"name": "",
							"type": "address"
						}
					],
					"stateMutability": "view",
					"type": "function"
				},
				{
					"inputs": [
						{
							"internalType": "string",
							"name": "_perfil",
							"type": "string"
						},
						{
							"internalType": "address",
							"name": "_dono",
							"type": "address"
						}
					],
					"name": "guardar",
					"outputs": [],
					"stateMutability": "payable",
					"type": "function"
				},
				{
					"inputs": [],
					"name": "perfil",
					"outputs": [
						{
							"internalType": "string",
							"name": "",
							"type": "string"
						}
					],
					"stateMutability": "view",
					"type": "function"
				},
				{
					"inputs": [],
					"name": "preco",
					"outputs": [
						{
							"internalType": "uint256",
							"name": "",
							"type": "uint256"
						}
					],
					"stateMutability": "view",
					"type": "function"
				},
				{
					"inputs": [],
					"name": "utilizado",
					"outputs": [
						{
							"internalType": "bool",
							"name": "",
							"type": "bool"
						}
					],
					"stateMutability": "view",
					"type": "function"
				}
			],
			"devdoc": {
				"kind": "dev",
				"methods": {
					"constructor": {
						"details": "Armazena o preco e criador para usar o contrato"
					},
					"guardar(string,address)": {
						"details": "Permite salvar um nome de perfil associado a um endereco de carteira. Requer que seja enviado o valor definido no construtor do contrato.",
						"params": {
							"_dono": "Endereco da carteira do dono do perfil.",
							"_perfil": "String representando o nome do perfil a ser salvo."
						}
					}
				},
				"version": 1
			},
			"evm": {
				"assembly": "    /* \"Modulo 2/Copy_RedeSocialNotarizada2.sol\":70:2129  contract RedeSocialNotarizada {... */\n  mstore(0x40, 0x80)\n    /* \"Modulo 2/Copy_RedeSocialNotarizada2.sol\":498:587  constructor(uint256 _preco) {... */\n  callvalue\n  dup1\n  iszero\n  tag_1\n  jumpi\n  0x00\n  dup1\n  revert\ntag_1:\n  pop\n  mload(0x40)\n  sub(codesize, bytecodeSize)\n  dup1\n  bytecodeSize\n  dup4\n  codecopy\n  dup2\n  dup2\n  add\n  0x40\n  mstore\n  dup2\n  add\n  swap1\n  tag_2\n  swap2\n  swap1\n  tag_3\n  jump\t// in\ntag_2:\n    /* \"Modulo 2/Copy_RedeSocialNotarizada2.sol\":544:550  _preco */\n  dup1\n    /* \"Modulo 2/Copy_RedeSocialNotarizada2.sol\":536:541  preco */\n  0x02\n    /* \"Modulo 2/Copy_RedeSocialNotarizada2.sol\":536:550  preco = _preco */\n  dup2\n  swap1\n  sstore\n  pop\n    /* \"Modulo 2/Copy_RedeSocialNotarizada2.sol\":570:580  msg.sender */\n  caller\n    /* \"Modulo 2/Copy_RedeSocialNotarizada2.sol\":560:567  criador */\n  0x03\n  0x00\n    /* \"Modulo 2/Copy_RedeSocialNotarizada2.sol\":560:580  criador = msg.sender */\n  0x0100\n  exp\n  dup2\n  sload\n  dup2\n  0xffffffffffffffffffffffffffffffffffffffff\n  mul\n  not\n  and\n  swap1\n  dup4\n  0xffffffffffffffffffffffffffffffffffffffff\n  and\n  mul\n  or\n  swap1\n  sstore\n  pop\n    /* \"Modulo 2/Copy_RedeSocialNotarizada2.sol\":498:587  constructor(uint256 _preco) {... */\n  pop\n    /* \"Modulo 2/Copy_RedeSocialNotarizada2.sol\":70:2129  contract RedeSocialNotarizada {... */\n  jump(tag_6)\n    /* \"#utility.yul\":88:205   */\ntag_8:\n    /* \"#utility.yul\":197:198   */\n  0x00\n    /* \"#utility.yul\":194:195   */\n  dup1\n    /* \"#utility.yul\":187:199   */\n  revert\n    /* \"#utility.yul\":334:411   */\ntag_10:\n    /* \"#utility.yul\":371:378   */\n  0x00\n    /* \"#utility.yul\":400:405   */\n  dup2\n    /* \"#utility.yul\":389:405   */\n  swap1\n  pop\n    /* \"#utility.yul\":334:411   */\n  swap2\n  swap1\n  pop\n  jump\t// out\n    /* \"#utility.yul\":417:539   */\ntag_11:\n    /* \"#utility.yul\":490:514   */\n  tag_19\n    /* \"#utility.yul\":508:513   */\n  dup2\n    /* \"#utility.yul\":490:514   */\n  tag_10\n  jump\t// in\ntag_19:\n    /* \"#utility.yul\":483:488   */\n  dup2\n    /* \"#utility.yul\":480:515   */\n  eq\n    /* \"#utility.yul\":470:533   */\n  tag_20\n  jumpi\n    /* \"#utility.yul\":529:530   */\n  0x00\n    /* \"#utility.yul\":526:527   */\n  dup1\n    /* \"#utility.yul\":519:531   */\n  revert\n    /* \"#utility.yul\":470:533   */\ntag_20:\n    /* \"#utility.yul\":417:539   */\n  pop\n  jump\t// out\n    /* \"#utility.yul\":545:688   */\ntag_12:\n    /* \"#utility.yul\":602:607   */\n  0x00\n    /* \"#utility.yul\":633:639   */\n  dup2\n    /* \"#utility.yul\":627:640   */\n  mload\n    /* \"#utility.yul\":618:640   */\n  swap1\n  pop\n    /* \"#utility.yul\":649:682   */\n  tag_22\n    /* \"#utility.yul\":676:681   */\n  dup2\n    /* \"#utility.yul\":649:682   */\n  tag_11\n  jump\t// in\ntag_22:\n    /* \"#utility.yul\":545:688   */\n  swap3\n  swap2\n  pop\n  pop\n  jump\t// out\n    /* \"#utility.yul\":694:1045   */\ntag_3:\n    /* \"#utility.yul\":764:770   */\n  0x00\n    /* \"#utility.yul\":813:815   */\n  0x20\n    /* \"#utility.yul\":801:810   */\n  dup3\n    /* \"#utility.yul\":792:799   */\n  dup5\n    /* \"#utility.yul\":788:811   */\n  sub\n    /* \"#utility.yul\":784:816   */\n  slt\n    /* \"#utility.yul\":781:900   */\n  iszero\n  tag_24\n  jumpi\n    /* \"#utility.yul\":819:898   */\n  tag_25\n  tag_8\n  jump\t// in\ntag_25:\n    /* \"#utility.yul\":781:900   */\ntag_24:\n    /* \"#utility.yul\":939:940   */\n  0x00\n    /* \"#utility.yul\":964:1028   */\n  tag_26\n    /* \"#utility.yul\":1020:1027   */\n  dup5\n    /* \"#utility.yul\":1011:1017   */\n  dup3\n    /* \"#utility.yul\":1000:1009   */\n  dup6\n    /* \"#utility.yul\":996:1018   */\n  add\n    /* \"#utility.yul\":964:1028   */\n  tag_12\n  jump\t// in\ntag_26:\n    /* \"#utility.yul\":954:1028   */\n  swap2\n  pop\n    /* \"#utility.yul\":910:1038   */\n  pop\n    /* \"#utility.yul\":694:1045   */\n  swap3\n  swap2\n  pop\n  pop\n  jump\t// out\n    /* \"Modulo 2/Copy_RedeSocialNotarizada2.sol\":70:2129  contract RedeSocialNotarizada {... */\ntag_6:\n  dataSize(sub_0)\n  dup1\n  dataOffset(sub_0)\n  0x00\n  codecopy\n  0x00\n  return\nstop\n\nsub_0: assembly {\n        /* \"Modulo 2/Copy_RedeSocialNotarizada2.sol\":70:2129  contract RedeSocialNotarizada {... */\n      mstore(0x40, 0x80)\n      jumpi(tag_1, lt(calldatasize, 0x04))\n      shr(0xe0, calldataload(0x00))\n      dup1\n      0x041c797c\n      eq\n      tag_2\n      jumpi\n      dup1\n      0x70514bea\n      eq\n      tag_3\n      jumpi\n      dup1\n      0x814b016c\n      eq\n      tag_4\n      jumpi\n      dup1\n      0x9e23d809\n      eq\n      tag_5\n      jumpi\n      dup1\n      0xd8787a86\n      eq\n      tag_6\n      jumpi\n      dup1\n      0xdf2765e8\n      eq\n      tag_7\n      jumpi\n    tag_1:\n      0x00\n      dup1\n      revert\n        /* \"Modulo 2/Copy_RedeSocialNotarizada2.sol\":304:326  address public criador */\n    tag_2:\n      callvalue\n      dup1\n      iszero\n      tag_8\n      jumpi\n      0x00\n      dup1\n      revert\n    tag_8:\n      pop\n      tag_9\n      tag_10\n      jump\t// in\n    tag_9:\n      mload(0x40)\n      tag_11\n      swap2\n      swap1\n      tag_12\n      jump\t// in\n    tag_11:\n      mload(0x40)\n      dup1\n      swap2\n      sub\n      swap1\n      return\n        /* \"Modulo 2/Copy_RedeSocialNotarizada2.sol\":177:196  address public dono */\n    tag_3:\n      callvalue\n      dup1\n      iszero\n      tag_13\n      jumpi\n      0x00\n      dup1\n      revert\n    tag_13:\n      pop\n      tag_14\n      tag_15\n      jump\t// in\n    tag_14:\n      mload(0x40)\n      tag_16\n      swap2\n      swap1\n      tag_12\n      jump\t// in\n    tag_16:\n      mload(0x40)\n      dup1\n      swap2\n      sub\n      swap1\n      return\n        /* \"Modulo 2/Copy_RedeSocialNotarizada2.sol\":359:380  bool public utilizado */\n    tag_4:\n      callvalue\n      dup1\n      iszero\n      tag_17\n      jumpi\n      0x00\n      dup1\n      revert\n    tag_17:\n      pop\n      tag_18\n      tag_19\n      jump\t// in\n    tag_18:\n      mload(0x40)\n      tag_20\n      swap2\n      swap1\n      tag_21\n      jump\t// in\n    tag_20:\n      mload(0x40)\n      dup1\n      swap2\n      sub\n      swap1\n      return\n        /* \"Modulo 2/Copy_RedeSocialNotarizada2.sol\":896:1493  function guardar(string calldata _perfil, address _dono) public payable {... */\n    tag_5:\n      tag_22\n      0x04\n      dup1\n      calldatasize\n      sub\n      dup2\n      add\n      swap1\n      tag_23\n      swap2\n      swap1\n      tag_24\n      jump\t// in\n    tag_23:\n      tag_25\n      jump\t// in\n    tag_22:\n      stop\n        /* \"Modulo 2/Copy_RedeSocialNotarizada2.sol\":229:249  uint256 public preco */\n    tag_6:\n      callvalue\n      dup1\n      iszero\n      tag_26\n      jumpi\n      0x00\n      dup1\n      revert\n    tag_26:\n      pop\n      tag_27\n      tag_28\n      jump\t// in\n    tag_27:\n      mload(0x40)\n      tag_29\n      swap2\n      swap1\n      tag_30\n      jump\t// in\n    tag_29:\n      mload(0x40)\n      dup1\n      swap2\n      sub\n      swap1\n      return\n        /* \"Modulo 2/Copy_RedeSocialNotarizada2.sol\":106:127  string  public perfil */\n    tag_7:\n      callvalue\n      dup1\n      iszero\n      tag_31\n      jumpi\n      0x00\n      dup1\n      revert\n    tag_31:\n      pop\n      tag_32\n      tag_33\n      jump\t// in\n    tag_32:\n      mload(0x40)\n      tag_34\n      swap2\n      swap1\n      tag_35\n      jump\t// in\n    tag_34:\n      mload(0x40)\n      dup1\n      swap2\n      sub\n      swap1\n      return\n        /* \"Modulo 2/Copy_RedeSocialNotarizada2.sol\":304:326  address public criador */\n    tag_10:\n      0x03\n      0x00\n      swap1\n      sload\n      swap1\n      0x0100\n      exp\n      swap1\n      div\n      0xffffffffffffffffffffffffffffffffffffffff\n      and\n      dup2\n      jump\t// out\n        /* \"Modulo 2/Copy_RedeSocialNotarizada2.sol\":177:196  address public dono */\n    tag_15:\n      0x01\n      0x00\n      swap1\n      sload\n      swap1\n      0x0100\n      exp\n      swap1\n      div\n      0xffffffffffffffffffffffffffffffffffffffff\n      and\n      dup2\n      jump\t// out\n        /* \"Modulo 2/Copy_RedeSocialNotarizada2.sol\":359:380  bool public utilizado */\n    tag_19:\n      0x03\n      0x14\n      swap1\n      sload\n      swap1\n      0x0100\n      exp\n      swap1\n      div\n      0xff\n      and\n      dup2\n      jump\t// out\n        /* \"Modulo 2/Copy_RedeSocialNotarizada2.sol\":896:1493  function guardar(string calldata _perfil, address _dono) public payable {... */\n    tag_25:\n        /* \"Modulo 2/Copy_RedeSocialNotarizada2.sol\":987:996  utilizado */\n      0x03\n      0x14\n      swap1\n      sload\n      swap1\n      0x0100\n      exp\n      swap1\n      div\n      0xff\n      and\n        /* \"Modulo 2/Copy_RedeSocialNotarizada2.sol\":986:996  !utilizado */\n      iszero\n        /* \"Modulo 2/Copy_RedeSocialNotarizada2.sol\":978:1036  require(!utilizado,         \"Um perfil ja esta guardado!\") */\n      tag_37\n      jumpi\n      mload(0x40)\n      0x08c379a000000000000000000000000000000000000000000000000000000000\n      dup2\n      mstore\n      0x04\n      add\n      tag_38\n      swap1\n      tag_39\n      jump\t// in\n    tag_38:\n      mload(0x40)\n      dup1\n      swap2\n      sub\n      swap1\n      revert\n    tag_37:\n        /* \"Modulo 2/Copy_RedeSocialNotarizada2.sol\":1143:1148  preco */\n      sload(0x02)\n        /* \"Modulo 2/Copy_RedeSocialNotarizada2.sol\":1130:1139  msg.value */\n      callvalue\n        /* \"Modulo 2/Copy_RedeSocialNotarizada2.sol\":1130:1148  msg.value >= preco */\n      lt\n      iszero\n        /* \"Modulo 2/Copy_RedeSocialNotarizada2.sol\":1122:1185  require(msg.value >= preco, \"Precisa receber o valor correto!\") */\n      tag_40\n      jumpi\n      mload(0x40)\n      0x08c379a000000000000000000000000000000000000000000000000000000000\n      dup2\n      mstore\n      0x04\n      add\n      tag_41\n      swap1\n      tag_42\n      jump\t// in\n    tag_41:\n      mload(0x40)\n      dup1\n      swap2\n      sub\n      swap1\n      revert\n    tag_40:\n        /* \"Modulo 2/Copy_RedeSocialNotarizada2.sol\":1261:1291  envia_troco(preco - msg.value) */\n      tag_43\n        /* \"Modulo 2/Copy_RedeSocialNotarizada2.sol\":1281:1290  msg.value */\n      callvalue\n        /* \"Modulo 2/Copy_RedeSocialNotarizada2.sol\":1273:1278  preco */\n      sload(0x02)\n        /* \"Modulo 2/Copy_RedeSocialNotarizada2.sol\":1273:1290  preco - msg.value */\n      tag_44\n      swap2\n      swap1\n      tag_45\n      jump\t// in\n    tag_44:\n        /* \"Modulo 2/Copy_RedeSocialNotarizada2.sol\":1261:1272  envia_troco */\n      tag_46\n        /* \"Modulo 2/Copy_RedeSocialNotarizada2.sol\":1261:1291  envia_troco(preco - msg.value) */\n      jump\t// in\n    tag_43:\n        /* \"Modulo 2/Copy_RedeSocialNotarizada2.sol\":1328:1345  envia_pagamento() */\n      tag_47\n        /* \"Modulo 2/Copy_RedeSocialNotarizada2.sol\":1328:1343  envia_pagamento */\n      tag_48\n        /* \"Modulo 2/Copy_RedeSocialNotarizada2.sol\":1328:1345  envia_pagamento() */\n      jump\t// in\n    tag_47:\n        /* \"Modulo 2/Copy_RedeSocialNotarizada2.sol\":1431:1438  _perfil */\n      dup3\n      dup3\n        /* \"Modulo 2/Copy_RedeSocialNotarizada2.sol\":1422:1428  perfil */\n      0x00\n        /* \"Modulo 2/Copy_RedeSocialNotarizada2.sol\":1422:1438  perfil = _perfil */\n      swap2\n      dup3\n      tag_49\n      swap3\n      swap2\n      swap1\n      tag_50\n      jump\t// in\n    tag_49:\n      pop\n        /* \"Modulo 2/Copy_RedeSocialNotarizada2.sol\":1455:1460  _dono */\n      dup1\n        /* \"Modulo 2/Copy_RedeSocialNotarizada2.sol\":1448:1452  dono */\n      0x01\n      0x00\n        /* \"Modulo 2/Copy_RedeSocialNotarizada2.sol\":1448:1460  dono = _dono */\n      0x0100\n      exp\n      dup2\n      sload\n      dup2\n      0xffffffffffffffffffffffffffffffffffffffff\n      mul\n      not\n      and\n      swap1\n      dup4\n      0xffffffffffffffffffffffffffffffffffffffff\n      and\n      mul\n      or\n      swap1\n      sstore\n      pop\n        /* \"Modulo 2/Copy_RedeSocialNotarizada2.sol\":1482:1486  true */\n      0x01\n        /* \"Modulo 2/Copy_RedeSocialNotarizada2.sol\":1470:1479  utilizado */\n      0x03\n      0x14\n        /* \"Modulo 2/Copy_RedeSocialNotarizada2.sol\":1470:1486  utilizado = true */\n      0x0100\n      exp\n      dup2\n      sload\n      dup2\n      0xff\n      mul\n      not\n      and\n      swap1\n      dup4\n      iszero\n      iszero\n      mul\n      or\n      swap1\n      sstore\n      pop\n        /* \"Modulo 2/Copy_RedeSocialNotarizada2.sol\":896:1493  function guardar(string calldata _perfil, address _dono) public payable {... */\n      pop\n      pop\n      pop\n      jump\t// out\n        /* \"Modulo 2/Copy_RedeSocialNotarizada2.sol\":229:249  uint256 public preco */\n    tag_28:\n      sload(0x02)\n      dup2\n      jump\t// out\n        /* \"Modulo 2/Copy_RedeSocialNotarizada2.sol\":106:127  string  public perfil */\n    tag_33:\n      0x00\n      dup1\n      sload\n      tag_51\n      swap1\n      tag_52\n      jump\t// in\n    tag_51:\n      dup1\n      0x1f\n      add\n      0x20\n      dup1\n      swap2\n      div\n      mul\n      0x20\n      add\n      mload(0x40)\n      swap1\n      dup2\n      add\n      0x40\n      mstore\n      dup1\n      swap3\n      swap2\n      swap1\n      dup2\n      dup2\n      mstore\n      0x20\n      add\n      dup3\n      dup1\n      sload\n      tag_53\n      swap1\n      tag_52\n      jump\t// in\n    tag_53:\n      dup1\n      iszero\n      tag_54\n      jumpi\n      dup1\n      0x1f\n      lt\n      tag_55\n      jumpi\n      0x0100\n      dup1\n      dup4\n      sload\n      div\n      mul\n      dup4\n      mstore\n      swap2\n      0x20\n      add\n      swap2\n      jump(tag_54)\n    tag_55:\n      dup3\n      add\n      swap2\n      swap1\n      0x00\n      mstore\n      keccak256(0x00, 0x20)\n      swap1\n    tag_56:\n      dup2\n      sload\n      dup2\n      mstore\n      swap1\n      0x01\n      add\n      swap1\n      0x20\n      add\n      dup1\n      dup4\n      gt\n      tag_56\n      jumpi\n      dup3\n      swap1\n      sub\n      0x1f\n      and\n      dup3\n      add\n      swap2\n    tag_54:\n      pop\n      pop\n      pop\n      pop\n      pop\n      dup2\n      jump\t// out\n        /* \"Modulo 2/Copy_RedeSocialNotarizada2.sol\":1499:1760  function envia_troco(uint _valor) private {     // 12. PRIVATE; fazer sem o private primeiro (HACKER imagina se pudesse enviar um valor a qualquer hora para o msg.sender)... */\n    tag_46:\n        /* \"Modulo 2/Copy_RedeSocialNotarizada2.sol\":1691:1692  0 */\n      0x00\n        /* \"Modulo 2/Copy_RedeSocialNotarizada2.sol\":1682:1688  _valor */\n      dup2\n        /* \"Modulo 2/Copy_RedeSocialNotarizada2.sol\":1682:1692  _valor > 0 */\n      gt\n        /* \"Modulo 2/Copy_RedeSocialNotarizada2.sol\":1678:1754  if (_valor > 0){... */\n      iszero\n      tag_58\n      jumpi\n        /* \"Modulo 2/Copy_RedeSocialNotarizada2.sol\":1715:1725  msg.sender */\n      caller\n        /* \"Modulo 2/Copy_RedeSocialNotarizada2.sol\":1707:1735  payable(msg.sender).transfer */\n      0xffffffffffffffffffffffffffffffffffffffff\n      and\n        /* \"Modulo 2/Copy_RedeSocialNotarizada2.sol\":1707:1743  payable(msg.sender).transfer(_valor) */\n      0x08fc\n        /* \"Modulo 2/Copy_RedeSocialNotarizada2.sol\":1736:1742  _valor */\n      dup3\n        /* \"Modulo 2/Copy_RedeSocialNotarizada2.sol\":1707:1743  payable(msg.sender).transfer(_valor) */\n      swap1\n      dup2\n      iszero\n      mul\n      swap1\n      mload(0x40)\n      0x00\n      mload(0x40)\n      dup1\n      dup4\n      sub\n      dup2\n      dup6\n      dup9\n      dup9\n      call\n      swap4\n      pop\n      pop\n      pop\n      pop\n      iszero\n      dup1\n      iszero\n      tag_60\n      jumpi\n      returndatasize\n      0x00\n      dup1\n      returndatacopy\n      revert(0x00, returndatasize)\n    tag_60:\n      pop\n        /* \"Modulo 2/Copy_RedeSocialNotarizada2.sol\":1678:1754  if (_valor > 0){... */\n    tag_58:\n        /* \"Modulo 2/Copy_RedeSocialNotarizada2.sol\":1499:1760  function envia_troco(uint _valor) private {     // 12. PRIVATE; fazer sem o private primeiro (HACKER imagina se pudesse enviar um valor a qualquer hora para o msg.sender)... */\n      pop\n      jump\t// out\n        /* \"Modulo 2/Copy_RedeSocialNotarizada2.sol\":1766:2127  function envia_pagamento() private {                        // 13. PRIVATE... */\n    tag_48:\n        /* \"Modulo 2/Copy_RedeSocialNotarizada2.sol\":1918:1925  criador */\n      0x03\n      0x00\n      swap1\n      sload\n      swap1\n      0x0100\n      exp\n      swap1\n      div\n      0xffffffffffffffffffffffffffffffffffffffff\n      and\n        /* \"Modulo 2/Copy_RedeSocialNotarizada2.sol\":1910:1935  payable(criador).transfer */\n      0xffffffffffffffffffffffffffffffffffffffff\n      and\n        /* \"Modulo 2/Copy_RedeSocialNotarizada2.sol\":1910:1958  payable(criador).transfer(address(this).balance) */\n      0x08fc\n        /* \"Modulo 2/Copy_RedeSocialNotarizada2.sol\":1936:1957  address(this).balance */\n      selfbalance\n        /* \"Modulo 2/Copy_RedeSocialNotarizada2.sol\":1910:1958  payable(criador).transfer(address(this).balance) */\n      swap1\n      dup2\n      iszero\n      mul\n      swap1\n      mload(0x40)\n      0x00\n      mload(0x40)\n      dup1\n      dup4\n      sub\n      dup2\n      dup6\n      dup9\n      dup9\n      call\n      swap4\n      pop\n      pop\n      pop\n      pop\n      iszero\n      dup1\n      iszero\n      tag_63\n      jumpi\n      returndatasize\n      0x00\n      dup1\n      returndatacopy\n      revert(0x00, returndatasize)\n    tag_63:\n      pop\n        /* \"Modulo 2/Copy_RedeSocialNotarizada2.sol\":1766:2127  function envia_pagamento() private {                        // 13. PRIVATE... */\n      jump\t// out\n        /* \"#utility.yul\":7:133   */\n    tag_64:\n        /* \"#utility.yul\":44:51   */\n      0x00\n        /* \"#utility.yul\":84:126   */\n      0xffffffffffffffffffffffffffffffffffffffff\n        /* \"#utility.yul\":77:82   */\n      dup3\n        /* \"#utility.yul\":73:127   */\n      and\n        /* \"#utility.yul\":62:127   */\n      swap1\n      pop\n        /* \"#utility.yul\":7:133   */\n      swap2\n      swap1\n      pop\n      jump\t// out\n        /* \"#utility.yul\":139:235   */\n    tag_65:\n        /* \"#utility.yul\":176:183   */\n      0x00\n        /* \"#utility.yul\":205:229   */\n      tag_111\n        /* \"#utility.yul\":223:228   */\n      dup3\n        /* \"#utility.yul\":205:229   */\n      tag_64\n      jump\t// in\n    tag_111:\n        /* \"#utility.yul\":194:229   */\n      swap1\n      pop\n        /* \"#utility.yul\":139:235   */\n      swap2\n      swap1\n      pop\n      jump\t// out\n        /* \"#utility.yul\":241:359   */\n    tag_66:\n        /* \"#utility.yul\":328:352   */\n      tag_113\n        /* \"#utility.yul\":346:351   */\n      dup2\n        /* \"#utility.yul\":328:352   */\n      tag_65\n      jump\t// in\n    tag_113:\n        /* \"#utility.yul\":323:326   */\n      dup3\n        /* \"#utility.yul\":316:353   */\n      mstore\n        /* \"#utility.yul\":241:359   */\n      pop\n      pop\n      jump\t// out\n        /* \"#utility.yul\":365:587   */\n    tag_12:\n        /* \"#utility.yul\":458:462   */\n      0x00\n        /* \"#utility.yul\":496:498   */\n      0x20\n        /* \"#utility.yul\":485:494   */\n      dup3\n        /* \"#utility.yul\":481:499   */\n      add\n        /* \"#utility.yul\":473:499   */\n      swap1\n      pop\n        /* \"#utility.yul\":509:580   */\n      tag_115\n        /* \"#utility.yul\":577:578   */\n      0x00\n        /* \"#utility.yul\":566:575   */\n      dup4\n        /* \"#utility.yul\":562:579   */\n      add\n        /* \"#utility.yul\":553:559   */\n      dup5\n        /* \"#utility.yul\":509:580   */\n      tag_66\n      jump\t// in\n    tag_115:\n        /* \"#utility.yul\":365:587   */\n      swap3\n      swap2\n      pop\n      pop\n      jump\t// out\n        /* \"#utility.yul\":593:683   */\n    tag_67:\n        /* \"#utility.yul\":627:634   */\n      0x00\n        /* \"#utility.yul\":670:675   */\n      dup2\n        /* \"#utility.yul\":663:676   */\n      iszero\n        /* \"#utility.yul\":656:677   */\n      iszero\n        /* \"#utility.yul\":645:677   */\n      swap1\n      pop\n        /* \"#utility.yul\":593:683   */\n      swap2\n      swap1\n      pop\n      jump\t// out\n        /* \"#utility.yul\":689:798   */\n    tag_68:\n        /* \"#utility.yul\":770:791   */\n      tag_118\n        /* \"#utility.yul\":785:790   */\n      dup2\n        /* \"#utility.yul\":770:791   */\n      tag_67\n      jump\t// in\n    tag_118:\n        /* \"#utility.yul\":765:768   */\n      dup3\n        /* \"#utility.yul\":758:792   */\n      mstore\n        /* \"#utility.yul\":689:798   */\n      pop\n      pop\n      jump\t// out\n        /* \"#utility.yul\":804:1014   */\n    tag_21:\n        /* \"#utility.yul\":891:895   */\n      0x00\n        /* \"#utility.yul\":929:931   */\n      0x20\n        /* \"#utility.yul\":918:927   */\n      dup3\n        /* \"#utility.yul\":914:932   */\n      add\n        /* \"#utility.yul\":906:932   */\n      swap1\n      pop\n        /* \"#utility.yul\":942:1007   */\n      tag_120\n        /* \"#utility.yul\":1004:1005   */\n      0x00\n        /* \"#utility.yul\":993:1002   */\n      dup4\n        /* \"#utility.yul\":989:1006   */\n      add\n        /* \"#utility.yul\":980:986   */\n      dup5\n        /* \"#utility.yul\":942:1007   */\n      tag_68\n      jump\t// in\n    tag_120:\n        /* \"#utility.yul\":804:1014   */\n      swap3\n      swap2\n      pop\n      pop\n      jump\t// out\n        /* \"#utility.yul\":1101:1218   */\n    tag_70:\n        /* \"#utility.yul\":1210:1211   */\n      0x00\n        /* \"#utility.yul\":1207:1208   */\n      dup1\n        /* \"#utility.yul\":1200:1212   */\n      revert\n        /* \"#utility.yul\":1224:1341   */\n    tag_71:\n        /* \"#utility.yul\":1333:1334   */\n      0x00\n        /* \"#utility.yul\":1330:1331   */\n      dup1\n        /* \"#utility.yul\":1323:1335   */\n      revert\n        /* \"#utility.yul\":1347:1464   */\n    tag_72:\n        /* \"#utility.yul\":1456:1457   */\n      0x00\n        /* \"#utility.yul\":1453:1454   */\n      dup1\n        /* \"#utility.yul\":1446:1458   */\n      revert\n        /* \"#utility.yul\":1470:1587   */\n    tag_73:\n        /* \"#utility.yul\":1579:1580   */\n      0x00\n        /* \"#utility.yul\":1576:1577   */\n      dup1\n        /* \"#utility.yul\":1569:1581   */\n      revert\n        /* \"#utility.yul\":1593:1710   */\n    tag_74:\n        /* \"#utility.yul\":1702:1703   */\n      0x00\n        /* \"#utility.yul\":1699:1700   */\n      dup1\n        /* \"#utility.yul\":1692:1704   */\n      revert\n        /* \"#utility.yul\":1730:2283   */\n    tag_75:\n        /* \"#utility.yul\":1788:1796   */\n      0x00\n        /* \"#utility.yul\":1798:1804   */\n      dup1\n        /* \"#utility.yul\":1848:1851   */\n      dup4\n        /* \"#utility.yul\":1841:1845   */\n      0x1f\n        /* \"#utility.yul\":1833:1839   */\n      dup5\n        /* \"#utility.yul\":1829:1846   */\n      add\n        /* \"#utility.yul\":1825:1852   */\n      slt\n        /* \"#utility.yul\":1815:1937   */\n      tag_128\n      jumpi\n        /* \"#utility.yul\":1856:1935   */\n      tag_129\n      tag_72\n      jump\t// in\n    tag_129:\n        /* \"#utility.yul\":1815:1937   */\n    tag_128:\n        /* \"#utility.yul\":1969:1975   */\n      dup3\n        /* \"#utility.yul\":1956:1976   */\n      calldataload\n        /* \"#utility.yul\":1946:1976   */\n      swap1\n      pop\n        /* \"#utility.yul\":1999:2017   */\n      0xffffffffffffffff\n        /* \"#utility.yul\":1991:1997   */\n      dup2\n        /* \"#utility.yul\":1988:2018   */\n      gt\n        /* \"#utility.yul\":1985:2102   */\n      iszero\n      tag_130\n      jumpi\n        /* \"#utility.yul\":2021:2100   */\n      tag_131\n      tag_73\n      jump\t// in\n    tag_131:\n        /* \"#utility.yul\":1985:2102   */\n    tag_130:\n        /* \"#utility.yul\":2135:2139   */\n      0x20\n        /* \"#utility.yul\":2127:2133   */\n      dup4\n        /* \"#utility.yul\":2123:2140   */\n      add\n        /* \"#utility.yul\":2111:2140   */\n      swap2\n      pop\n        /* \"#utility.yul\":2189:2192   */\n      dup4\n        /* \"#utility.yul\":2181:2185   */\n      0x01\n        /* \"#utility.yul\":2173:2179   */\n      dup3\n        /* \"#utility.yul\":2169:2186   */\n      mul\n        /* \"#utility.yul\":2159:2167   */\n      dup4\n        /* \"#utility.yul\":2155:2187   */\n      add\n        /* \"#utility.yul\":2152:2193   */\n      gt\n        /* \"#utility.yul\":2149:2277   */\n      iszero\n      tag_132\n      jumpi\n        /* \"#utility.yul\":2196:2275   */\n      tag_133\n      tag_74\n      jump\t// in\n    tag_133:\n        /* \"#utility.yul\":2149:2277   */\n    tag_132:\n        /* \"#utility.yul\":1730:2283   */\n      swap3\n      pop\n      swap3\n      swap1\n      pop\n      jump\t// out\n        /* \"#utility.yul\":2289:2411   */\n    tag_76:\n        /* \"#utility.yul\":2362:2386   */\n      tag_135\n        /* \"#utility.yul\":2380:2385   */\n      dup2\n        /* \"#utility.yul\":2362:2386   */\n      tag_65\n      jump\t// in\n    tag_135:\n        /* \"#utility.yul\":2355:2360   */\n      dup2\n        /* \"#utility.yul\":2352:2387   */\n      eq\n        /* \"#utility.yul\":2342:2405   */\n      tag_136\n      jumpi\n        /* \"#utility.yul\":2401:2402   */\n      0x00\n        /* \"#utility.yul\":2398:2399   */\n      dup1\n        /* \"#utility.yul\":2391:2403   */\n      revert\n        /* \"#utility.yul\":2342:2405   */\n    tag_136:\n        /* \"#utility.yul\":2289:2411   */\n      pop\n      jump\t// out\n        /* \"#utility.yul\":2417:2556   */\n    tag_77:\n        /* \"#utility.yul\":2463:2468   */\n      0x00\n        /* \"#utility.yul\":2501:2507   */\n      dup2\n        /* \"#utility.yul\":2488:2508   */\n      calldataload\n        /* \"#utility.yul\":2479:2508   */\n      swap1\n      pop\n        /* \"#utility.yul\":2517:2550   */\n      tag_138\n        /* \"#utility.yul\":2544:2549   */\n      dup2\n        /* \"#utility.yul\":2517:2550   */\n      tag_76\n      jump\t// in\n    tag_138:\n        /* \"#utility.yul\":2417:2556   */\n      swap3\n      swap2\n      pop\n      pop\n      jump\t// out\n        /* \"#utility.yul\":2562:3236   */\n    tag_24:\n        /* \"#utility.yul\":2642:2648   */\n      0x00\n        /* \"#utility.yul\":2650:2656   */\n      dup1\n        /* \"#utility.yul\":2658:2664   */\n      0x00\n        /* \"#utility.yul\":2707:2709   */\n      0x40\n        /* \"#utility.yul\":2695:2704   */\n      dup5\n        /* \"#utility.yul\":2686:2693   */\n      dup7\n        /* \"#utility.yul\":2682:2705   */\n      sub\n        /* \"#utility.yul\":2678:2710   */\n      slt\n        /* \"#utility.yul\":2675:2794   */\n      iszero\n      tag_140\n      jumpi\n        /* \"#utility.yul\":2713:2792   */\n      tag_141\n      tag_70\n      jump\t// in\n    tag_141:\n        /* \"#utility.yul\":2675:2794   */\n    tag_140:\n        /* \"#utility.yul\":2861:2862   */\n      0x00\n        /* \"#utility.yul\":2850:2859   */\n      dup5\n        /* \"#utility.yul\":2846:2863   */\n      add\n        /* \"#utility.yul\":2833:2864   */\n      calldataload\n        /* \"#utility.yul\":2891:2909   */\n      0xffffffffffffffff\n        /* \"#utility.yul\":2883:2889   */\n      dup2\n        /* \"#utility.yul\":2880:2910   */\n      gt\n        /* \"#utility.yul\":2877:2994   */\n      iszero\n      tag_142\n      jumpi\n        /* \"#utility.yul\":2913:2992   */\n      tag_143\n      tag_71\n      jump\t// in\n    tag_143:\n        /* \"#utility.yul\":2877:2994   */\n    tag_142:\n        /* \"#utility.yul\":3026:3091   */\n      tag_144\n        /* \"#utility.yul\":3083:3090   */\n      dup7\n        /* \"#utility.yul\":3074:3080   */\n      dup3\n        /* \"#utility.yul\":3063:3072   */\n      dup8\n        /* \"#utility.yul\":3059:3081   */\n      add\n        /* \"#utility.yul\":3026:3091   */\n      tag_75\n      jump\t// in\n    tag_144:\n        /* \"#utility.yul\":3008:3091   */\n      swap4\n      pop\n      swap4\n      pop\n        /* \"#utility.yul\":2804:3101   */\n      pop\n        /* \"#utility.yul\":3140:3142   */\n      0x20\n        /* \"#utility.yul\":3166:3219   */\n      tag_145\n        /* \"#utility.yul\":3211:3218   */\n      dup7\n        /* \"#utility.yul\":3202:3208   */\n      dup3\n        /* \"#utility.yul\":3191:3200   */\n      dup8\n        /* \"#utility.yul\":3187:3209   */\n      add\n        /* \"#utility.yul\":3166:3219   */\n      tag_77\n      jump\t// in\n    tag_145:\n        /* \"#utility.yul\":3156:3219   */\n      swap2\n      pop\n        /* \"#utility.yul\":3111:3229   */\n      pop\n        /* \"#utility.yul\":2562:3236   */\n      swap3\n      pop\n      swap3\n      pop\n      swap3\n      jump\t// out\n        /* \"#utility.yul\":3242:3319   */\n    tag_78:\n        /* \"#utility.yul\":3279:3286   */\n      0x00\n        /* \"#utility.yul\":3308:3313   */\n      dup2\n        /* \"#utility.yul\":3297:3313   */\n      swap1\n      pop\n        /* \"#utility.yul\":3242:3319   */\n      swap2\n      swap1\n      pop\n      jump\t// out\n        /* \"#utility.yul\":3325:3443   */\n    tag_79:\n        /* \"#utility.yul\":3412:3436   */\n      tag_148\n        /* \"#utility.yul\":3430:3435   */\n      dup2\n        /* \"#utility.yul\":3412:3436   */\n      tag_78\n      jump\t// in\n    tag_148:\n        /* \"#utility.yul\":3407:3410   */\n      dup3\n        /* \"#utility.yul\":3400:3437   */\n      mstore\n        /* \"#utility.yul\":3325:3443   */\n      pop\n      pop\n      jump\t// out\n        /* \"#utility.yul\":3449:3671   */\n    tag_30:\n        /* \"#utility.yul\":3542:3546   */\n      0x00\n        /* \"#utility.yul\":3580:3582   */\n      0x20\n        /* \"#utility.yul\":3569:3578   */\n      dup3\n        /* \"#utility.yul\":3565:3583   */\n      add\n        /* \"#utility.yul\":3557:3583   */\n      swap1\n      pop\n        /* \"#utility.yul\":3593:3664   */\n      tag_150\n        /* \"#utility.yul\":3661:3662   */\n      0x00\n        /* \"#utility.yul\":3650:3659   */\n      dup4\n        /* \"#utility.yul\":3646:3663   */\n      add\n        /* \"#utility.yul\":3637:3643   */\n      dup5\n        /* \"#utility.yul\":3593:3664   */\n      tag_79\n      jump\t// in\n    tag_150:\n        /* \"#utility.yul\":3449:3671   */\n      swap3\n      swap2\n      pop\n      pop\n      jump\t// out\n        /* \"#utility.yul\":3677:3776   */\n    tag_80:\n        /* \"#utility.yul\":3729:3735   */\n      0x00\n        /* \"#utility.yul\":3763:3768   */\n      dup2\n        /* \"#utility.yul\":3757:3769   */\n      mload\n        /* \"#utility.yul\":3747:3769   */\n      swap1\n      pop\n        /* \"#utility.yul\":3677:3776   */\n      swap2\n      swap1\n      pop\n      jump\t// out\n        /* \"#utility.yul\":3782:3951   */\n    tag_81:\n        /* \"#utility.yul\":3866:3877   */\n      0x00\n        /* \"#utility.yul\":3900:3906   */\n      dup3\n        /* \"#utility.yul\":3895:3898   */\n      dup3\n        /* \"#utility.yul\":3888:3907   */\n      mstore\n        /* \"#utility.yul\":3940:3944   */\n      0x20\n        /* \"#utility.yul\":3935:3938   */\n      dup3\n        /* \"#utility.yul\":3931:3945   */\n      add\n        /* \"#utility.yul\":3916:3945   */\n      swap1\n      pop\n        /* \"#utility.yul\":3782:3951   */\n      swap3\n      swap2\n      pop\n      pop\n      jump\t// out\n        /* \"#utility.yul\":3957:4096   */\n    tag_82:\n        /* \"#utility.yul\":4046:4052   */\n      dup3\n        /* \"#utility.yul\":4041:4044   */\n      dup2\n        /* \"#utility.yul\":4036:4039   */\n      dup4\n        /* \"#utility.yul\":4030:4053   */\n      mcopy\n        /* \"#utility.yul\":4087:4088   */\n      0x00\n        /* \"#utility.yul\":4078:4084   */\n      dup4\n        /* \"#utility.yul\":4073:4076   */\n      dup4\n        /* \"#utility.yul\":4069:4085   */\n      add\n        /* \"#utility.yul\":4062:4089   */\n      mstore\n        /* \"#utility.yul\":3957:4096   */\n      pop\n      pop\n      pop\n      jump\t// out\n        /* \"#utility.yul\":4102:4204   */\n    tag_83:\n        /* \"#utility.yul\":4143:4149   */\n      0x00\n        /* \"#utility.yul\":4194:4196   */\n      0x1f\n        /* \"#utility.yul\":4190:4197   */\n      not\n        /* \"#utility.yul\":4185:4187   */\n      0x1f\n        /* \"#utility.yul\":4178:4183   */\n      dup4\n        /* \"#utility.yul\":4174:4188   */\n      add\n        /* \"#utility.yul\":4170:4198   */\n      and\n        /* \"#utility.yul\":4160:4198   */\n      swap1\n      pop\n        /* \"#utility.yul\":4102:4204   */\n      swap2\n      swap1\n      pop\n      jump\t// out\n        /* \"#utility.yul\":4210:4587   */\n    tag_84:\n        /* \"#utility.yul\":4298:4301   */\n      0x00\n        /* \"#utility.yul\":4326:4365   */\n      tag_156\n        /* \"#utility.yul\":4359:4364   */\n      dup3\n        /* \"#utility.yul\":4326:4365   */\n      tag_80\n      jump\t// in\n    tag_156:\n        /* \"#utility.yul\":4381:4452   */\n      tag_157\n        /* \"#utility.yul\":4445:4451   */\n      dup2\n        /* \"#utility.yul\":4440:4443   */\n      dup6\n        /* \"#utility.yul\":4381:4452   */\n      tag_81\n      jump\t// in\n    tag_157:\n        /* \"#utility.yul\":4374:4452   */\n      swap4\n      pop\n        /* \"#utility.yul\":4461:4526   */\n      tag_158\n        /* \"#utility.yul\":4519:4525   */\n      dup2\n        /* \"#utility.yul\":4514:4517   */\n      dup6\n        /* \"#utility.yul\":4507:4511   */\n      0x20\n        /* \"#utility.yul\":4500:4505   */\n      dup7\n        /* \"#utility.yul\":4496:4512   */\n      add\n        /* \"#utility.yul\":4461:4526   */\n      tag_82\n      jump\t// in\n    tag_158:\n        /* \"#utility.yul\":4551:4580   */\n      tag_159\n        /* \"#utility.yul\":4573:4579   */\n      dup2\n        /* \"#utility.yul\":4551:4580   */\n      tag_83\n      jump\t// in\n    tag_159:\n        /* \"#utility.yul\":4546:4549   */\n      dup5\n        /* \"#utility.yul\":4542:4581   */\n      add\n        /* \"#utility.yul\":4535:4581   */\n      swap2\n      pop\n        /* \"#utility.yul\":4302:4587   */\n      pop\n        /* \"#utility.yul\":4210:4587   */\n      swap3\n      swap2\n      pop\n      pop\n      jump\t// out\n        /* \"#utility.yul\":4593:4906   */\n    tag_35:\n        /* \"#utility.yul\":4706:4710   */\n      0x00\n        /* \"#utility.yul\":4744:4746   */\n      0x20\n        /* \"#utility.yul\":4733:4742   */\n      dup3\n        /* \"#utility.yul\":4729:4747   */\n      add\n        /* \"#utility.yul\":4721:4747   */\n      swap1\n      pop\n        /* \"#utility.yul\":4793:4802   */\n      dup2\n        /* \"#utility.yul\":4787:4791   */\n      dup2\n        /* \"#utility.yul\":4783:4803   */\n      sub\n        /* \"#utility.yul\":4779:4780   */\n      0x00\n        /* \"#utility.yul\":4768:4777   */\n      dup4\n        /* \"#utility.yul\":4764:4781   */\n      add\n        /* \"#utility.yul\":4757:4804   */\n      mstore\n        /* \"#utility.yul\":4821:4899   */\n      tag_161\n        /* \"#utility.yul\":4894:4898   */\n      dup2\n        /* \"#utility.yul\":4885:4891   */\n      dup5\n        /* \"#utility.yul\":4821:4899   */\n      tag_84\n      jump\t// in\n    tag_161:\n        /* \"#utility.yul\":4813:4899   */\n      swap1\n      pop\n        /* \"#utility.yul\":4593:4906   */\n      swap3\n      swap2\n      pop\n      pop\n      jump\t// out\n        /* \"#utility.yul\":4912:5089   */\n    tag_85:\n        /* \"#utility.yul\":5052:5081   */\n      0x556d2070657266696c206a61206573746120677561726461646f210000000000\n        /* \"#utility.yul\":5048:5049   */\n      0x00\n        /* \"#utility.yul\":5040:5046   */\n      dup3\n        /* \"#utility.yul\":5036:5050   */\n      add\n        /* \"#utility.yul\":5029:5082   */\n      mstore\n        /* \"#utility.yul\":4912:5089   */\n      pop\n      jump\t// out\n        /* \"#utility.yul\":5095:5461   */\n    tag_86:\n        /* \"#utility.yul\":5237:5240   */\n      0x00\n        /* \"#utility.yul\":5258:5325   */\n      tag_164\n        /* \"#utility.yul\":5322:5324   */\n      0x1b\n        /* \"#utility.yul\":5317:5320   */\n      dup4\n        /* \"#utility.yul\":5258:5325   */\n      tag_81\n      jump\t// in\n    tag_164:\n        /* \"#utility.yul\":5251:5325   */\n      swap2\n      pop\n        /* \"#utility.yul\":5334:5427   */\n      tag_165\n        /* \"#utility.yul\":5423:5426   */\n      dup3\n        /* \"#utility.yul\":5334:5427   */\n      tag_85\n      jump\t// in\n    tag_165:\n        /* \"#utility.yul\":5452:5454   */\n      0x20\n        /* \"#utility.yul\":5447:5450   */\n      dup3\n        /* \"#utility.yul\":5443:5455   */\n      add\n        /* \"#utility.yul\":5436:5455   */\n      swap1\n      pop\n        /* \"#utility.yul\":5095:5461   */\n      swap2\n      swap1\n      pop\n      jump\t// out\n        /* \"#utility.yul\":5467:5886   */\n    tag_39:\n        /* \"#utility.yul\":5633:5637   */\n      0x00\n        /* \"#utility.yul\":5671:5673   */\n      0x20\n        /* \"#utility.yul\":5660:5669   */\n      dup3\n        /* \"#utility.yul\":5656:5674   */\n      add\n        /* \"#utility.yul\":5648:5674   */\n      swap1\n      pop\n        /* \"#utility.yul\":5720:5729   */\n      dup2\n        /* \"#utility.yul\":5714:5718   */\n      dup2\n        /* \"#utility.yul\":5710:5730   */\n      sub\n        /* \"#utility.yul\":5706:5707   */\n      0x00\n        /* \"#utility.yul\":5695:5704   */\n      dup4\n        /* \"#utility.yul\":5691:5708   */\n      add\n        /* \"#utility.yul\":5684:5731   */\n      mstore\n        /* \"#utility.yul\":5748:5879   */\n      tag_167\n        /* \"#utility.yul\":5874:5878   */\n      dup2\n        /* \"#utility.yul\":5748:5879   */\n      tag_86\n      jump\t// in\n    tag_167:\n        /* \"#utility.yul\":5740:5879   */\n      swap1\n      pop\n        /* \"#utility.yul\":5467:5886   */\n      swap2\n      swap1\n      pop\n      jump\t// out\n        /* \"#utility.yul\":5892:6074   */\n    tag_87:\n        /* \"#utility.yul\":6032:6066   */\n      0x507265636973612072656365626572206f2076616c6f7220636f727265746f21\n        /* \"#utility.yul\":6028:6029   */\n      0x00\n        /* \"#utility.yul\":6020:6026   */\n      dup3\n        /* \"#utility.yul\":6016:6030   */\n      add\n        /* \"#utility.yul\":6009:6067   */\n      mstore\n        /* \"#utility.yul\":5892:6074   */\n      pop\n      jump\t// out\n        /* \"#utility.yul\":6080:6446   */\n    tag_88:\n        /* \"#utility.yul\":6222:6225   */\n      0x00\n        /* \"#utility.yul\":6243:6310   */\n      tag_170\n        /* \"#utility.yul\":6307:6309   */\n      0x20\n        /* \"#utility.yul\":6302:6305   */\n      dup4\n        /* \"#utility.yul\":6243:6310   */\n      tag_81\n      jump\t// in\n    tag_170:\n        /* \"#utility.yul\":6236:6310   */\n      swap2\n      pop\n        /* \"#utility.yul\":6319:6412   */\n      tag_171\n        /* \"#utility.yul\":6408:6411   */\n      dup3\n        /* \"#utility.yul\":6319:6412   */\n      tag_87\n      jump\t// in\n    tag_171:\n        /* \"#utility.yul\":6437:6439   */\n      0x20\n        /* \"#utility.yul\":6432:6435   */\n      dup3\n        /* \"#utility.yul\":6428:6440   */\n      add\n        /* \"#utility.yul\":6421:6440   */\n      swap1\n      pop\n        /* \"#utility.yul\":6080:6446   */\n      swap2\n      swap1\n      pop\n      jump\t// out\n        /* \"#utility.yul\":6452:6871   */\n    tag_42:\n        /* \"#utility.yul\":6618:6622   */\n      0x00\n        /* \"#utility.yul\":6656:6658   */\n      0x20\n        /* \"#utility.yul\":6645:6654   */\n      dup3\n        /* \"#utility.yul\":6641:6659   */\n      add\n        /* \"#utility.yul\":6633:6659   */\n      swap1\n      pop\n        /* \"#utility.yul\":6705:6714   */\n      dup2\n        /* \"#utility.yul\":6699:6703   */\n      dup2\n        /* \"#utility.yul\":6695:6715   */\n      sub\n        /* \"#utility.yul\":6691:6692   */\n      0x00\n        /* \"#utility.yul\":6680:6689   */\n      dup4\n        /* \"#utility.yul\":6676:6693   */\n      add\n        /* \"#utility.yul\":6669:6716   */\n      mstore\n        /* \"#utility.yul\":6733:6864   */\n      tag_173\n        /* \"#utility.yul\":6859:6863   */\n      dup2\n        /* \"#utility.yul\":6733:6864   */\n      tag_88\n      jump\t// in\n    tag_173:\n        /* \"#utility.yul\":6725:6864   */\n      swap1\n      pop\n        /* \"#utility.yul\":6452:6871   */\n      swap2\n      swap1\n      pop\n      jump\t// out\n        /* \"#utility.yul\":6877:7057   */\n    tag_89:\n        /* \"#utility.yul\":6925:7002   */\n      0x4e487b7100000000000000000000000000000000000000000000000000000000\n        /* \"#utility.yul\":6922:6923   */\n      0x00\n        /* \"#utility.yul\":6915:7003   */\n      mstore\n        /* \"#utility.yul\":7022:7026   */\n      0x11\n        /* \"#utility.yul\":7019:7020   */\n      0x04\n        /* \"#utility.yul\":7012:7027   */\n      mstore\n        /* \"#utility.yul\":7046:7050   */\n      0x24\n        /* \"#utility.yul\":7043:7044   */\n      0x00\n        /* \"#utility.yul\":7036:7051   */\n      revert\n        /* \"#utility.yul\":7063:7257   */\n    tag_45:\n        /* \"#utility.yul\":7103:7107   */\n      0x00\n        /* \"#utility.yul\":7123:7143   */\n      tag_176\n        /* \"#utility.yul\":7141:7142   */\n      dup3\n        /* \"#utility.yul\":7123:7143   */\n      tag_78\n      jump\t// in\n    tag_176:\n        /* \"#utility.yul\":7118:7143   */\n      swap2\n      pop\n        /* \"#utility.yul\":7157:7177   */\n      tag_177\n        /* \"#utility.yul\":7175:7176   */\n      dup4\n        /* \"#utility.yul\":7157:7177   */\n      tag_78\n      jump\t// in\n    tag_177:\n        /* \"#utility.yul\":7152:7177   */\n      swap3\n      pop\n        /* \"#utility.yul\":7201:7202   */\n      dup3\n        /* \"#utility.yul\":7198:7199   */\n      dup3\n        /* \"#utility.yul\":7194:7203   */\n      sub\n        /* \"#utility.yul\":7186:7203   */\n      swap1\n      pop\n        /* \"#utility.yul\":7225:7226   */\n      dup2\n        /* \"#utility.yul\":7219:7223   */\n      dup2\n        /* \"#utility.yul\":7216:7227   */\n      gt\n        /* \"#utility.yul\":7213:7250   */\n      iszero\n      tag_178\n      jumpi\n        /* \"#utility.yul\":7230:7248   */\n      tag_179\n      tag_89\n      jump\t// in\n    tag_179:\n        /* \"#utility.yul\":7213:7250   */\n    tag_178:\n        /* \"#utility.yul\":7063:7257   */\n      swap3\n      swap2\n      pop\n      pop\n      jump\t// out\n        /* \"#utility.yul\":7263:7360   */\n    tag_90:\n        /* \"#utility.yul\":7322:7328   */\n      0x00\n        /* \"#utility.yul\":7350:7353   */\n      dup3\n        /* \"#utility.yul\":7340:7353   */\n      swap1\n      pop\n        /* \"#utility.yul\":7263:7360   */\n      swap3\n      swap2\n      pop\n      pop\n      jump\t// out\n        /* \"#utility.yul\":7366:7546   */\n    tag_91:\n        /* \"#utility.yul\":7414:7491   */\n      0x4e487b7100000000000000000000000000000000000000000000000000000000\n        /* \"#utility.yul\":7411:7412   */\n      0x00\n        /* \"#utility.yul\":7404:7492   */\n      mstore\n        /* \"#utility.yul\":7511:7515   */\n      0x41\n        /* \"#utility.yul\":7508:7509   */\n      0x04\n        /* \"#utility.yul\":7501:7516   */\n      mstore\n        /* \"#utility.yul\":7535:7539   */\n      0x24\n        /* \"#utility.yul\":7532:7533   */\n      0x00\n        /* \"#utility.yul\":7525:7540   */\n      revert\n        /* \"#utility.yul\":7552:7732   */\n    tag_92:\n        /* \"#utility.yul\":7600:7677   */\n      0x4e487b7100000000000000000000000000000000000000000000000000000000\n        /* \"#utility.yul\":7597:7598   */\n      0x00\n        /* \"#utility.yul\":7590:7678   */\n      mstore\n        /* \"#utility.yul\":7697:7701   */\n      0x22\n        /* \"#utility.yul\":7694:7695   */\n      0x04\n        /* \"#utility.yul\":7687:7702   */\n      mstore\n        /* \"#utility.yul\":7721:7725   */\n      0x24\n        /* \"#utility.yul\":7718:7719   */\n      0x00\n        /* \"#utility.yul\":7711:7726   */\n      revert\n        /* \"#utility.yul\":7738:8058   */\n    tag_52:\n        /* \"#utility.yul\":7782:7788   */\n      0x00\n        /* \"#utility.yul\":7819:7820   */\n      0x02\n        /* \"#utility.yul\":7813:7817   */\n      dup3\n        /* \"#utility.yul\":7809:7821   */\n      div\n        /* \"#utility.yul\":7799:7821   */\n      swap1\n      pop\n        /* \"#utility.yul\":7866:7867   */\n      0x01\n        /* \"#utility.yul\":7860:7864   */\n      dup3\n        /* \"#utility.yul\":7856:7868   */\n      and\n        /* \"#utility.yul\":7887:7905   */\n      dup1\n        /* \"#utility.yul\":7877:7958   */\n      tag_184\n      jumpi\n        /* \"#utility.yul\":7943:7947   */\n      0x7f\n        /* \"#utility.yul\":7935:7941   */\n      dup3\n        /* \"#utility.yul\":7931:7948   */\n      and\n        /* \"#utility.yul\":7921:7948   */\n      swap2\n      pop\n        /* \"#utility.yul\":7877:7958   */\n    tag_184:\n        /* \"#utility.yul\":8005:8007   */\n      0x20\n        /* \"#utility.yul\":7997:8003   */\n      dup3\n        /* \"#utility.yul\":7994:8008   */\n      lt\n        /* \"#utility.yul\":7974:7992   */\n      dup2\n        /* \"#utility.yul\":7971:8009   */\n      sub\n        /* \"#utility.yul\":7968:8052   */\n      tag_185\n      jumpi\n        /* \"#utility.yul\":8024:8042   */\n      tag_186\n      tag_92\n      jump\t// in\n    tag_186:\n        /* \"#utility.yul\":7968:8052   */\n    tag_185:\n        /* \"#utility.yul\":7789:8058   */\n      pop\n        /* \"#utility.yul\":7738:8058   */\n      swap2\n      swap1\n      pop\n      jump\t// out\n        /* \"#utility.yul\":8064:8205   */\n    tag_93:\n        /* \"#utility.yul\":8113:8117   */\n      0x00\n        /* \"#utility.yul\":8136:8139   */\n      dup2\n        /* \"#utility.yul\":8128:8139   */\n      swap1\n      pop\n        /* \"#utility.yul\":8159:8162   */\n      dup2\n        /* \"#utility.yul\":8156:8157   */\n      0x00\n        /* \"#utility.yul\":8149:8163   */\n      mstore\n        /* \"#utility.yul\":8193:8197   */\n      0x20\n        /* \"#utility.yul\":8190:8191   */\n      0x00\n        /* \"#utility.yul\":8180:8198   */\n      keccak256\n        /* \"#utility.yul\":8172:8198   */\n      swap1\n      pop\n        /* \"#utility.yul\":8064:8205   */\n      swap2\n      swap1\n      pop\n      jump\t// out\n        /* \"#utility.yul\":8211:8304   */\n    tag_94:\n        /* \"#utility.yul\":8248:8254   */\n      0x00\n        /* \"#utility.yul\":8295:8297   */\n      0x20\n        /* \"#utility.yul\":8290:8292   */\n      0x1f\n        /* \"#utility.yul\":8283:8288   */\n      dup4\n        /* \"#utility.yul\":8279:8293   */\n      add\n        /* \"#utility.yul\":8275:8298   */\n      div\n        /* \"#utility.yul\":8265:8298   */\n      swap1\n      pop\n        /* \"#utility.yul\":8211:8304   */\n      swap2\n      swap1\n      pop\n      jump\t// out\n        /* \"#utility.yul\":8310:8417   */\n    tag_95:\n        /* \"#utility.yul\":8354:8362   */\n      0x00\n        /* \"#utility.yul\":8404:8409   */\n      dup3\n        /* \"#utility.yul\":8398:8402   */\n      dup3\n        /* \"#utility.yul\":8394:8410   */\n      shl\n        /* \"#utility.yul\":8373:8410   */\n      swap1\n      pop\n        /* \"#utility.yul\":8310:8417   */\n      swap3\n      swap2\n      pop\n      pop\n      jump\t// out\n        /* \"#utility.yul\":8423:8816   */\n    tag_96:\n        /* \"#utility.yul\":8492:8498   */\n      0x00\n        /* \"#utility.yul\":8542:8543   */\n      0x08\n        /* \"#utility.yul\":8530:8540   */\n      dup4\n        /* \"#utility.yul\":8526:8544   */\n      mul\n        /* \"#utility.yul\":8565:8662   */\n      tag_191\n        /* \"#utility.yul\":8595:8661   */\n      0xffffffffffffffffffffffffffffffffffffffffffffffffffffffffffffffff\n        /* \"#utility.yul\":8584:8593   */\n      dup3\n        /* \"#utility.yul\":8565:8662   */\n      tag_95\n      jump\t// in\n    tag_191:\n        /* \"#utility.yul\":8683:8722   */\n      tag_192\n        /* \"#utility.yul\":8713:8721   */\n      dup7\n        /* \"#utility.yul\":8702:8711   */\n      dup4\n        /* \"#utility.yul\":8683:8722   */\n      tag_95\n      jump\t// in\n    tag_192:\n        /* \"#utility.yul\":8671:8722   */\n      swap6\n      pop\n        /* \"#utility.yul\":8755:8759   */\n      dup1\n        /* \"#utility.yul\":8751:8760   */\n      not\n        /* \"#utility.yul\":8744:8749   */\n      dup5\n        /* \"#utility.yul\":8740:8761   */\n      and\n        /* \"#utility.yul\":8731:8761   */\n      swap4\n      pop\n        /* \"#utility.yul\":8804:8808   */\n      dup1\n        /* \"#utility.yul\":8794:8802   */\n      dup7\n        /* \"#utility.yul\":8790:8809   */\n      and\n        /* \"#utility.yul\":8783:8788   */\n      dup5\n        /* \"#utility.yul\":8780:8810   */\n      or\n        /* \"#utility.yul\":8770:8810   */\n      swap3\n      pop\n        /* \"#utility.yul\":8499:8816   */\n      pop\n      pop\n        /* \"#utility.yul\":8423:8816   */\n      swap4\n      swap3\n      pop\n      pop\n      pop\n      jump\t// out\n        /* \"#utility.yul\":8822:8882   */\n    tag_97:\n        /* \"#utility.yul\":8850:8853   */\n      0x00\n        /* \"#utility.yul\":8871:8876   */\n      dup2\n        /* \"#utility.yul\":8864:8876   */\n      swap1\n      pop\n        /* \"#utility.yul\":8822:8882   */\n      swap2\n      swap1\n      pop\n      jump\t// out\n        /* \"#utility.yul\":8888:9030   */\n    tag_98:\n        /* \"#utility.yul\":8938:8947   */\n      0x00\n        /* \"#utility.yul\":8971:9024   */\n      tag_195\n        /* \"#utility.yul\":8989:9023   */\n      tag_196\n        /* \"#utility.yul\":8998:9022   */\n      tag_197\n        /* \"#utility.yul\":9016:9021   */\n      dup5\n        /* \"#utility.yul\":8998:9022   */\n      tag_78\n      jump\t// in\n    tag_197:\n        /* \"#utility.yul\":8989:9023   */\n      tag_97\n      jump\t// in\n    tag_196:\n        /* \"#utility.yul\":8971:9024   */\n      tag_78\n      jump\t// in\n    tag_195:\n        /* \"#utility.yul\":8958:9024   */\n      swap1\n      pop\n        /* \"#utility.yul\":8888:9030   */\n      swap2\n      swap1\n      pop\n      jump\t// out\n        /* \"#utility.yul\":9036:9111   */\n    tag_99:\n        /* \"#utility.yul\":9079:9082   */\n      0x00\n        /* \"#utility.yul\":9100:9105   */\n      dup2\n        /* \"#utility.yul\":9093:9105   */\n      swap1\n      pop\n        /* \"#utility.yul\":9036:9111   */\n      swap2\n      swap1\n      pop\n      jump\t// out\n        /* \"#utility.yul\":9117:9386   */\n    tag_100:\n        /* \"#utility.yul\":9227:9266   */\n      tag_200\n        /* \"#utility.yul\":9258:9265   */\n      dup4\n        /* \"#utility.yul\":9227:9266   */\n      tag_98\n      jump\t// in\n    tag_200:\n        /* \"#utility.yul\":9288:9379   */\n      tag_201\n        /* \"#utility.yul\":9337:9378   */\n      tag_202\n        /* \"#utility.yul\":9361:9377   */\n      dup3\n        /* \"#utility.yul\":9337:9378   */\n      tag_99\n      jump\t// in\n    tag_202:\n        /* \"#utility.yul\":9329:9335   */\n      dup5\n        /* \"#utility.yul\":9322:9326   */\n      dup5\n        /* \"#utility.yul\":9316:9327   */\n      sload\n        /* \"#utility.yul\":9288:9379   */\n      tag_96\n      jump\t// in\n    tag_201:\n        /* \"#utility.yul\":9282:9286   */\n      dup3\n        /* \"#utility.yul\":9275:9380   */\n      sstore\n        /* \"#utility.yul\":9193:9386   */\n      pop\n        /* \"#utility.yul\":9117:9386   */\n      pop\n      pop\n      pop\n      jump\t// out\n        /* \"#utility.yul\":9392:9465   */\n    tag_101:\n        /* \"#utility.yul\":9437:9440   */\n      0x00\n        /* \"#utility.yul\":9392:9465   */\n      swap1\n      jump\t// out\n        /* \"#utility.yul\":9471:9660   */\n    tag_102:\n        /* \"#utility.yul\":9548:9580   */\n      tag_205\n      tag_101\n      jump\t// in\n    tag_205:\n        /* \"#utility.yul\":9589:9654   */\n      tag_206\n        /* \"#utility.yul\":9647:9653   */\n      dup2\n        /* \"#utility.yul\":9639:9645   */\n      dup5\n        /* \"#utility.yul\":9633:9637   */\n      dup5\n        /* \"#utility.yul\":9589:9654   */\n      tag_100\n      jump\t// in\n    tag_206:\n        /* \"#utility.yul\":9524:9660   */\n      pop\n        /* \"#utility.yul\":9471:9660   */\n      pop\n      pop\n      jump\t// out\n        /* \"#utility.yul\":9666:9852   */\n    tag_103:\n        /* \"#utility.yul\":9726:9846   */\n    tag_208:\n        /* \"#utility.yul\":9743:9746   */\n      dup2\n        /* \"#utility.yul\":9736:9741   */\n      dup2\n        /* \"#utility.yul\":9733:9747   */\n      lt\n        /* \"#utility.yul\":9726:9846   */\n      iszero\n      tag_210\n      jumpi\n        /* \"#utility.yul\":9797:9836   */\n      tag_211\n        /* \"#utility.yul\":9834:9835   */\n      0x00\n        /* \"#utility.yul\":9827:9832   */\n      dup3\n        /* \"#utility.yul\":9797:9836   */\n      tag_102\n      jump\t// in\n    tag_211:\n        /* \"#utility.yul\":9770:9771   */\n      0x01\n        /* \"#utility.yul\":9763:9768   */\n      dup2\n        /* \"#utility.yul\":9759:9772   */\n      add\n        /* \"#utility.yul\":9750:9772   */\n      swap1\n      pop\n        /* \"#utility.yul\":9726:9846   */\n      jump(tag_208)\n    tag_210:\n        /* \"#utility.yul\":9666:9852   */\n      pop\n      pop\n      jump\t// out\n        /* \"#utility.yul\":9858:10401   */\n    tag_104:\n        /* \"#utility.yul\":9959:9961   */\n      0x1f\n        /* \"#utility.yul\":9954:9957   */\n      dup3\n        /* \"#utility.yul\":9951:9962   */\n      gt\n        /* \"#utility.yul\":9948:10394   */\n      iszero\n      tag_213\n      jumpi\n        /* \"#utility.yul\":9993:10031   */\n      tag_214\n        /* \"#utility.yul\":10025:10030   */\n      dup2\n        /* \"#utility.yul\":9993:10031   */\n      tag_93\n      jump\t// in\n    tag_214:\n        /* \"#utility.yul\":10077:10106   */\n      tag_215\n        /* \"#utility.yul\":10095:10105   */\n      dup5\n        /* \"#utility.yul\":10077:10106   */\n      tag_94\n      jump\t// in\n    tag_215:\n        /* \"#utility.yul\":10067:10075   */\n      dup2\n        /* \"#utility.yul\":10063:10107   */\n      add\n        /* \"#utility.yul\":10260:10262   */\n      0x20\n        /* \"#utility.yul\":10248:10258   */\n      dup6\n        /* \"#utility.yul\":10245:10263   */\n      lt\n        /* \"#utility.yul\":10242:10291   */\n      iszero\n      tag_216\n      jumpi\n        /* \"#utility.yul\":10281:10289   */\n      dup2\n        /* \"#utility.yul\":10266:10289   */\n      swap1\n      pop\n        /* \"#utility.yul\":10242:10291   */\n    tag_216:\n        /* \"#utility.yul\":10304:10384   */\n      tag_217\n        /* \"#utility.yul\":10360:10382   */\n      tag_218\n        /* \"#utility.yul\":10378:10381   */\n      dup6\n        /* \"#utility.yul\":10360:10382   */\n      tag_94\n      jump\t// in\n    tag_218:\n        /* \"#utility.yul\":10350:10358   */\n      dup4\n        /* \"#utility.yul\":10346:10383   */\n      add\n        /* \"#utility.yul\":10333:10344   */\n      dup3\n        /* \"#utility.yul\":10304:10384   */\n      tag_103\n      jump\t// in\n    tag_217:\n        /* \"#utility.yul\":9963:10394   */\n      pop\n      pop\n        /* \"#utility.yul\":9948:10394   */\n    tag_213:\n        /* \"#utility.yul\":9858:10401   */\n      pop\n      pop\n      pop\n      jump\t// out\n        /* \"#utility.yul\":10407:10524   */\n    tag_105:\n        /* \"#utility.yul\":10461:10469   */\n      0x00\n        /* \"#utility.yul\":10511:10516   */\n      dup3\n        /* \"#utility.yul\":10505:10509   */\n      dup3\n        /* \"#utility.yul\":10501:10517   */\n      shr\n        /* \"#utility.yul\":10480:10517   */\n      swap1\n      pop\n        /* \"#utility.yul\":10407:10524   */\n      swap3\n      swap2\n      pop\n      pop\n      jump\t// out\n        /* \"#utility.yul\":10530:10699   */\n    tag_106:\n        /* \"#utility.yul\":10574:10580   */\n      0x00\n        /* \"#utility.yul\":10607:10658   */\n      tag_221\n        /* \"#utility.yul\":10655:10656   */\n      0x00\n        /* \"#utility.yul\":10651:10657   */\n      not\n        /* \"#utility.yul\":10643:10648   */\n      dup5\n        /* \"#utility.yul\":10640:10641   */\n      0x08\n        /* \"#utility.yul\":10636:10649   */\n      mul\n        /* \"#utility.yul\":10607:10658   */\n      tag_105\n      jump\t// in\n    tag_221:\n        /* \"#utility.yul\":10603:10659   */\n      not\n        /* \"#utility.yul\":10688:10692   */\n      dup1\n        /* \"#utility.yul\":10682:10686   */\n      dup4\n        /* \"#utility.yul\":10678:10693   */\n      and\n        /* \"#utility.yul\":10668:10693   */\n      swap2\n      pop\n        /* \"#utility.yul\":10581:10699   */\n      pop\n        /* \"#utility.yul\":10530:10699   */\n      swap3\n      swap2\n      pop\n      pop\n      jump\t// out\n        /* \"#utility.yul\":10704:10999   */\n    tag_107:\n        /* \"#utility.yul\":10780:10784   */\n      0x00\n        /* \"#utility.yul\":10926:10955   */\n      tag_223\n        /* \"#utility.yul\":10951:10954   */\n      dup4\n        /* \"#utility.yul\":10945:10949   */\n      dup4\n        /* \"#utility.yul\":10926:10955   */\n      tag_106\n      jump\t// in\n    tag_223:\n        /* \"#utility.yul\":10918:10955   */\n      swap2\n      pop\n        /* \"#utility.yul\":10988:10991   */\n      dup3\n        /* \"#utility.yul\":10985:10986   */\n      0x02\n        /* \"#utility.yul\":10981:10992   */\n      mul\n        /* \"#utility.yul\":10975:10979   */\n      dup3\n        /* \"#utility.yul\":10972:10993   */\n      or\n        /* \"#utility.yul\":10964:10993   */\n      swap1\n      pop\n        /* \"#utility.yul\":10704:10999   */\n      swap3\n      swap2\n      pop\n      pop\n      jump\t// out\n        /* \"#utility.yul\":11004:12407   */\n    tag_50:\n        /* \"#utility.yul\":11128:11172   */\n      tag_225\n        /* \"#utility.yul\":11168:11171   */\n      dup4\n        /* \"#utility.yul\":11163:11166   */\n      dup4\n        /* \"#utility.yul\":11128:11172   */\n      tag_90\n      jump\t// in\n    tag_225:\n        /* \"#utility.yul\":11237:11255   */\n      0xffffffffffffffff\n        /* \"#utility.yul\":11229:11235   */\n      dup2\n        /* \"#utility.yul\":11226:11256   */\n      gt\n        /* \"#utility.yul\":11223:11279   */\n      iszero\n      tag_226\n      jumpi\n        /* \"#utility.yul\":11259:11277   */\n      tag_227\n      tag_91\n      jump\t// in\n    tag_227:\n        /* \"#utility.yul\":11223:11279   */\n    tag_226:\n        /* \"#utility.yul\":11303:11341   */\n      tag_228\n        /* \"#utility.yul\":11335:11339   */\n      dup3\n        /* \"#utility.yul\":11329:11340   */\n      sload\n        /* \"#utility.yul\":11303:11341   */\n      tag_52\n      jump\t// in\n    tag_228:\n        /* \"#utility.yul\":11388:11455   */\n      tag_229\n        /* \"#utility.yul\":11448:11454   */\n      dup3\n        /* \"#utility.yul\":11440:11446   */\n      dup3\n        /* \"#utility.yul\":11434:11438   */\n      dup6\n        /* \"#utility.yul\":11388:11455   */\n      tag_104\n      jump\t// in\n    tag_229:\n        /* \"#utility.yul\":11482:11483   */\n      0x00\n        /* \"#utility.yul\":11511:11513   */\n      0x1f\n        /* \"#utility.yul\":11503:11509   */\n      dup4\n        /* \"#utility.yul\":11500:11514   */\n      gt\n        /* \"#utility.yul\":11528:11529   */\n      0x01\n        /* \"#utility.yul\":11523:12155   */\n      dup2\n      eq\n      tag_231\n      jumpi\n        /* \"#utility.yul\":12199:12200   */\n      0x00\n        /* \"#utility.yul\":12216:12222   */\n      dup5\n        /* \"#utility.yul\":12213:12297   */\n      iszero\n      tag_232\n      jumpi\n        /* \"#utility.yul\":12272:12281   */\n      dup3\n        /* \"#utility.yul\":12267:12270   */\n      dup8\n        /* \"#utility.yul\":12263:12282   */\n      add\n        /* \"#utility.yul\":12250:12283   */\n      calldataload\n        /* \"#utility.yul\":12241:12283   */\n      swap1\n      pop\n        /* \"#utility.yul\":12213:12297   */\n    tag_232:\n        /* \"#utility.yul\":12323:12390   */\n      tag_233\n        /* \"#utility.yul\":12383:12389   */\n      dup6\n        /* \"#utility.yul\":12376:12381   */\n      dup3\n        /* \"#utility.yul\":12323:12390   */\n      tag_107\n      jump\t// in\n    tag_233:\n        /* \"#utility.yul\":12317:12321   */\n      dup7\n        /* \"#utility.yul\":12310:12391   */\n      sstore\n        /* \"#utility.yul\":12172:12401   */\n      pop\n        /* \"#utility.yul\":11493:12401   */\n      jump(tag_230)\n        /* \"#utility.yul\":11523:12155   */\n    tag_231:\n        /* \"#utility.yul\":11575:11579   */\n      0x1f\n        /* \"#utility.yul\":11571:11580   */\n      not\n        /* \"#utility.yul\":11563:11569   */\n      dup5\n        /* \"#utility.yul\":11559:11581   */\n      and\n        /* \"#utility.yul\":11609:11646   */\n      tag_234\n        /* \"#utility.yul\":11641:11645   */\n      dup7\n        /* \"#utility.yul\":11609:11646   */\n      tag_93\n      jump\t// in\n    tag_234:\n        /* \"#utility.yul\":11668:11669   */\n      0x00\n        /* \"#utility.yul\":11682:11897   */\n    tag_235:\n        /* \"#utility.yul\":11696:11703   */\n      dup3\n        /* \"#utility.yul\":11693:11694   */\n      dup2\n        /* \"#utility.yul\":11690:11704   */\n      lt\n        /* \"#utility.yul\":11682:11897   */\n      iszero\n      tag_237\n      jumpi\n        /* \"#utility.yul\":11782:11791   */\n      dup5\n        /* \"#utility.yul\":11777:11780   */\n      dup10\n        /* \"#utility.yul\":11773:11792   */\n      add\n        /* \"#utility.yul\":11760:11793   */\n      calldataload\n        /* \"#utility.yul\":11752:11758   */\n      dup3\n        /* \"#utility.yul\":11745:11794   */\n      sstore\n        /* \"#utility.yul\":11833:11834   */\n      0x01\n        /* \"#utility.yul\":11825:11831   */\n      dup3\n        /* \"#utility.yul\":11821:11835   */\n      add\n        /* \"#utility.yul\":11811:11835   */\n      swap2\n      pop\n        /* \"#utility.yul\":11880:11882   */\n      0x20\n        /* \"#utility.yul\":11869:11878   */\n      dup6\n        /* \"#utility.yul\":11865:11883   */\n      add\n        /* \"#utility.yul\":11852:11883   */\n      swap5\n      pop\n        /* \"#utility.yul\":11719:11723   */\n      0x20\n        /* \"#utility.yul\":11716:11717   */\n      dup2\n        /* \"#utility.yul\":11712:11724   */\n      add\n        /* \"#utility.yul\":11707:11724   */\n      swap1\n      pop\n        /* \"#utility.yul\":11682:11897   */\n      jump(tag_235)\n    tag_237:\n        /* \"#utility.yul\":11925:11931   */\n      dup7\n        /* \"#utility.yul\":11916:11923   */\n      dup4\n        /* \"#utility.yul\":11913:11932   */\n      lt\n        /* \"#utility.yul\":11910:12096   */\n      iszero\n      tag_238\n      jumpi\n        /* \"#utility.yul\":11990:11999   */\n      dup5\n        /* \"#utility.yul\":11985:11988   */\n      dup10\n        /* \"#utility.yul\":11981:12000   */\n      add\n        /* \"#utility.yul\":11968:12001   */\n      calldataload\n        /* \"#utility.yul\":12033:12081   */\n      tag_239\n        /* \"#utility.yul\":12075:12079   */\n      0x1f\n        /* \"#utility.yul\":12067:12073   */\n      dup10\n        /* \"#utility.yul\":12063:12080   */\n      and\n        /* \"#utility.yul\":12052:12061   */\n      dup3\n        /* \"#utility.yul\":12033:12081   */\n      tag_106\n      jump\t// in\n    tag_239:\n        /* \"#utility.yul\":12025:12031   */\n      dup4\n        /* \"#utility.yul\":12018:12082   */\n      sstore\n        /* \"#utility.yul\":11933:12096   */\n      pop\n        /* \"#utility.yul\":11910:12096   */\n    tag_238:\n        /* \"#utility.yul\":12142:12143   */\n      0x01\n        /* \"#utility.yul\":12138:12139   */\n      0x02\n        /* \"#utility.yul\":12130:12136   */\n      dup9\n        /* \"#utility.yul\":12126:12140   */\n      mul\n        /* \"#utility.yul\":12122:12144   */\n      add\n        /* \"#utility.yul\":12116:12120   */\n      dup9\n        /* \"#utility.yul\":12109:12145   */\n      sstore\n        /* \"#utility.yul\":11530:12155   */\n      pop\n      pop\n      pop\n        /* \"#utility.yul\":11493:12401   */\n    tag_230:\n      pop\n        /* \"#utility.yul\":11103:12407   */\n      pop\n      pop\n      pop\n        /* \"#utility.yul\":11004:12407   */\n      pop\n      pop\n      pop\n      jump\t// out\n\n    auxdata: 0xa2646970667358221220bb6204e97cc929d2881992ff63f05271bbabff927575a32d0b21cd3830ee79c764736f6c634300081a0033\n}\n",
				"bytecode": {
					"linkReferences": {},
					"object": "6080604052348015600e575f80fd5b50604051610b8e380380610b8e8339818101604052810190602e919060ac565b806002819055503360035f6101000a81548173ffffffffffffffffffffffffffffffffffffffff021916908373ffffffffffffffffffffffffffffffffffffffff1602179055505060d2565b5f80fd5b5f819050919050565b608e81607e565b81146097575f80fd5b50565b5f8151905060a6816087565b92915050565b5f6020828403121560be5760bd607a565b5b5f60c984828501609a565b91505092915050565b610aaf806100df5f395ff3fe608060405260043610610054575f3560e01c8063041c797c1461005857806370514bea14610082578063814b016c146100ac5780639e23d809146100d6578063d8787a86146100f2578063df2765e81461011c575b5f80fd5b348015610063575f80fd5b5061006c610146565b604051610079919061044e565b60405180910390f35b34801561008d575f80fd5b5061009661016b565b6040516100a3919061044e565b60405180910390f35b3480156100b7575f80fd5b506100c0610190565b6040516100cd9190610481565b60405180910390f35b6100f060048036038101906100eb919061052d565b6101a3565b005b3480156100fd575f80fd5b506101066102c7565b60405161011391906105a2565b60405180910390f35b348015610127575f80fd5b506101306102cd565b60405161013d919061062b565b60405180910390f35b60035f9054906101000a900473ffffffffffffffffffffffffffffffffffffffff1681565b60015f9054906101000a900473ffffffffffffffffffffffffffffffffffffffff1681565b600360149054906101000a900460ff1681565b600360149054906101000a900460ff16156101f3576040517f08c379a00000000000000000000000000000000000000000000000000000000081526004016101ea90610695565b60405180910390fd5b600254341015610238576040517f08c379a000000000000000000000000000000000000000000000000000000000815260040161022f906106fd565b60405180910390fd5b61024e346002546102499190610748565b610358565b6102566103a8565b82825f91826102669291906109ac565b508060015f6101000a81548173ffffffffffffffffffffffffffffffffffffffff021916908373ffffffffffffffffffffffffffffffffffffffff1602179055506001600360146101000a81548160ff021916908315150217905550505050565b60025481565b5f80546102d9906107df565b80601f0160208091040260200160405190810160405280929190818152602001828054610305906107df565b80156103505780601f1061032757610100808354040283529160200191610350565b820191905f5260205f20905b81548152906001019060200180831161033357829003601f168201915b505050505081565b5f8111156103a5573373ffffffffffffffffffffffffffffffffffffffff166108fc8290811502906040515f60405180830381858888f193505050501580156103a3573d5f803e3d5ffd5b505b50565b60035f9054906101000a900473ffffffffffffffffffffffffffffffffffffffff1673ffffffffffffffffffffffffffffffffffffffff166108fc4790811502906040515f60405180830381858888f1935050505015801561040c573d5f803e3d5ffd5b50565b5f73ffffffffffffffffffffffffffffffffffffffff82169050919050565b5f6104388261040f565b9050919050565b6104488161042e565b82525050565b5f6020820190506104615f83018461043f565b92915050565b5f8115159050919050565b61047b81610467565b82525050565b5f6020820190506104945f830184610472565b92915050565b5f80fd5b5f80fd5b5f80fd5b5f80fd5b5f80fd5b5f8083601f8401126104c3576104c26104a2565b5b8235905067ffffffffffffffff8111156104e0576104df6104a6565b5b6020830191508360018202830111156104fc576104fb6104aa565b5b9250929050565b61050c8161042e565b8114610516575f80fd5b50565b5f8135905061052781610503565b92915050565b5f805f604084860312156105445761054361049a565b5b5f84013567ffffffffffffffff8111156105615761056061049e565b5b61056d868287016104ae565b9350935050602061058086828701610519565b9150509250925092565b5f819050919050565b61059c8161058a565b82525050565b5f6020820190506105b55f830184610593565b92915050565b5f81519050919050565b5f82825260208201905092915050565b8281835e5f83830152505050565b5f601f19601f8301169050919050565b5f6105fd826105bb565b61060781856105c5565b93506106178185602086016105d5565b610620816105e3565b840191505092915050565b5f6020820190508181035f83015261064381846105f3565b905092915050565b7f556d2070657266696c206a61206573746120677561726461646f2100000000005f82015250565b5f61067f601b836105c5565b915061068a8261064b565b602082019050919050565b5f6020820190508181035f8301526106ac81610673565b9050919050565b7f507265636973612072656365626572206f2076616c6f7220636f727265746f215f82015250565b5f6106e76020836105c5565b91506106f2826106b3565b602082019050919050565b5f6020820190508181035f830152610714816106db565b9050919050565b7f4e487b71000000000000000000000000000000000000000000000000000000005f52601160045260245ffd5b5f6107528261058a565b915061075d8361058a565b92508282039050818111156107755761077461071b565b5b92915050565b5f82905092915050565b7f4e487b71000000000000000000000000000000000000000000000000000000005f52604160045260245ffd5b7f4e487b71000000000000000000000000000000000000000000000000000000005f52602260045260245ffd5b5f60028204905060018216806107f657607f821691505b602082108103610809576108086107b2565b5b50919050565b5f819050815f5260205f209050919050565b5f6020601f8301049050919050565b5f82821b905092915050565b5f6008830261086b7fffffffffffffffffffffffffffffffffffffffffffffffffffffffffffffffff82610830565b6108758683610830565b95508019841693508086168417925050509392505050565b5f819050919050565b5f6108b06108ab6108a68461058a565b61088d565b61058a565b9050919050565b5f819050919050565b6108c983610896565b6108dd6108d5826108b7565b84845461083c565b825550505050565b5f90565b6108f16108e5565b6108fc8184846108c0565b505050565b5b8181101561091f576109145f826108e9565b600181019050610902565b5050565b601f821115610964576109358161080f565b61093e84610821565b8101602085101561094d578190505b61096161095985610821565b830182610901565b50505b505050565b5f82821c905092915050565b5f6109845f1984600802610969565b1980831691505092915050565b5f61099c8383610975565b9150826002028217905092915050565b6109b6838361077b565b67ffffffffffffffff8111156109cf576109ce610785565b5b6109d982546107df565b6109e4828285610923565b5f601f831160018114610a11575f84156109ff578287013590505b610a098582610991565b865550610a70565b601f198416610a1f8661080f565b5f5b82811015610a4657848901358255600182019150602085019450602081019050610a21565b86831015610a635784890135610a5f601f891682610975565b8355505b6001600288020188555050505b5050505050505056fea2646970667358221220bb6204e97cc929d2881992ff63f05271bbabff927575a32d0b21cd3830ee79c764736f6c634300081a0033",
					"opcodes": "PUSH1 0x80 PUSH1 0x40 MSTORE CALLVALUE DUP1 ISZERO PUSH1 0xE JUMPI PUSH0 DUP1 REVERT JUMPDEST POP PUSH1 0x40 MLOAD PUSH2 0xB8E CODESIZE SUB DUP1 PUSH2 0xB8E DUP4 CODECOPY DUP2 DUP2 ADD PUSH1 0x40 MSTORE DUP2 ADD SWAP1 PUSH1 0x2E SWAP2 SWAP1 PUSH1 0xAC JUMP JUMPDEST DUP1 PUSH1 0x2 DUP2 SWAP1 SSTORE POP CALLER PUSH1 0x3 PUSH0 PUSH2 0x100 EXP DUP2 SLOAD DUP2 PUSH20 0xFFFFFFFFFFFFFFFFFFFFFFFFFFFFFFFFFFFFFFFF MUL NOT AND SWAP1 DUP4 PUSH20 0xFFFFFFFFFFFFFFFFFFFFFFFFFFFFFFFFFFFFFFFF AND MUL OR SWAP1 SSTORE POP POP PUSH1 0xD2 JUMP JUMPDEST PUSH0 DUP1 REVERT JUMPDEST PUSH0 DUP2 SWAP1 POP SWAP2 SWAP1 POP JUMP JUMPDEST PUSH1 0x8E DUP2 PUSH1 0x7E JUMP JUMPDEST DUP2 EQ PUSH1 0x97 JUMPI PUSH0 DUP1 REVERT JUMPDEST POP JUMP JUMPDEST PUSH0 DUP2 MLOAD SWAP1 POP PUSH1 0xA6 DUP2 PUSH1 0x87 JUMP JUMPDEST SWAP3 SWAP2 POP POP JUMP JUMPDEST PUSH0 PUSH1 0x20 DUP3 DUP5 SUB SLT ISZERO PUSH1 0xBE JUMPI PUSH1 0xBD PUSH1 0x7A JUMP JUMPDEST JUMPDEST PUSH0 PUSH1 0xC9 DUP5 DUP3 DUP6 ADD PUSH1 0x9A JUMP JUMPDEST SWAP2 POP POP SWAP3 SWAP2 POP POP JUMP JUMPDEST PUSH2 0xAAF DUP1 PUSH2 0xDF PUSH0 CODECOPY PUSH0 RETURN INVALID PUSH1 0x80 PUSH1 0x40 MSTORE PUSH1 0x4 CALLDATASIZE LT PUSH2 0x54 JUMPI PUSH0 CALLDATALOAD PUSH1 0xE0 SHR DUP1 PUSH4 0x41C797C EQ PUSH2 0x58 JUMPI DUP1 PUSH4 0x70514BEA EQ PUSH2 0x82 JUMPI DUP1 PUSH4 0x814B016C EQ PUSH2 0xAC JUMPI DUP1 PUSH4 0x9E23D809 EQ PUSH2 0xD6 JUMPI DUP1 PUSH4 0xD8787A86 EQ PUSH2 0xF2 JUMPI DUP1 PUSH4 0xDF2765E8 EQ PUSH2 0x11C JUMPI JUMPDEST PUSH0 DUP1 REVERT JUMPDEST CALLVALUE DUP1 ISZERO PUSH2 0x63 JUMPI PUSH0 DUP1 REVERT JUMPDEST POP PUSH2 0x6C PUSH2 0x146 JUMP JUMPDEST PUSH1 0x40 MLOAD PUSH2 0x79 SWAP2 SWAP1 PUSH2 0x44E JUMP JUMPDEST PUSH1 0x40 MLOAD DUP1 SWAP2 SUB SWAP1 RETURN JUMPDEST CALLVALUE DUP1 ISZERO PUSH2 0x8D JUMPI PUSH0 DUP1 REVERT JUMPDEST POP PUSH2 0x96 PUSH2 0x16B JUMP JUMPDEST PUSH1 0x40 MLOAD PUSH2 0xA3 SWAP2 SWAP1 PUSH2 0x44E JUMP JUMPDEST PUSH1 0x40 MLOAD DUP1 SWAP2 SUB SWAP1 RETURN JUMPDEST CALLVALUE DUP1 ISZERO PUSH2 0xB7 JUMPI PUSH0 DUP1 REVERT JUMPDEST POP PUSH2 0xC0 PUSH2 0x190 JUMP JUMPDEST PUSH1 0x40 MLOAD PUSH2 0xCD SWAP2 SWAP1 PUSH2 0x481 JUMP JUMPDEST PUSH1 0x40 MLOAD DUP1 SWAP2 SUB SWAP1 RETURN JUMPDEST PUSH2 0xF0 PUSH1 0x4 DUP1 CALLDATASIZE SUB DUP2 ADD SWAP1 PUSH2 0xEB SWAP2 SWAP1 PUSH2 0x52D JUMP JUMPDEST PUSH2 0x1A3 JUMP JUMPDEST STOP JUMPDEST CALLVALUE DUP1 ISZERO PUSH2 0xFD JUMPI PUSH0 DUP1 REVERT JUMPDEST POP PUSH2 0x106 PUSH2 0x2C7 JUMP JUMPDEST PUSH1 0x40 MLOAD PUSH2 0x113 SWAP2 SWAP1 PUSH2 0x5A2 JUMP JUMPDEST PUSH1 0x40 MLOAD DUP1 SWAP2 SUB SWAP1 RETURN JUMPDEST CALLVALUE DUP1 ISZERO PUSH2 0x127 JUMPI PUSH0 DUP1 REVERT JUMPDEST POP PUSH2 0x130 PUSH2 0x2CD JUMP JUMPDEST PUSH1 0x40 MLOAD PUSH2 0x13D SWAP2 SWAP1 PUSH2 0x62B JUMP JUMPDEST PUSH1 0x40 MLOAD DUP1 SWAP2 SUB SWAP1 RETURN JUMPDEST PUSH1 0x3 PUSH0 SWAP1 SLOAD SWAP1 PUSH2 0x100 EXP SWAP1 DIV PUSH20 0xFFFFFFFFFFFFFFFFFFFFFFFFFFFFFFFFFFFFFFFF AND DUP2 JUMP JUMPDEST PUSH1 0x1 PUSH0 SWAP1 SLOAD SWAP1 PUSH2 0x100 EXP SWAP1 DIV PUSH20 0xFFFFFFFFFFFFFFFFFFFFFFFFFFFFFFFFFFFFFFFF AND DUP2 JUMP JUMPDEST PUSH1 0x3 PUSH1 0x14 SWAP1 SLOAD SWAP1 PUSH2 0x100 EXP SWAP1 DIV PUSH1 0xFF AND DUP2 JUMP JUMPDEST PUSH1 0x3 PUSH1 0x14 SWAP1 SLOAD SWAP1 PUSH2 0x100 EXP SWAP1 DIV PUSH1 0xFF AND ISZERO PUSH2 0x1F3 JUMPI PUSH1 0x40 MLOAD PUSH32 0x8C379A000000000000000000000000000000000000000000000000000000000 DUP2 MSTORE PUSH1 0x4 ADD PUSH2 0x1EA SWAP1 PUSH2 0x695 JUMP JUMPDEST PUSH1 0x40 MLOAD DUP1 SWAP2 SUB SWAP1 REVERT JUMPDEST PUSH1 0x2 SLOAD CALLVALUE LT ISZERO PUSH2 0x238 JUMPI PUSH1 0x40 MLOAD PUSH32 0x8C379A000000000000000000000000000000000000000000000000000000000 DUP2 MSTORE PUSH1 0x4 ADD PUSH2 0x22F SWAP1 PUSH2 0x6FD JUMP JUMPDEST PUSH1 0x40 MLOAD DUP1 SWAP2 SUB SWAP1 REVERT JUMPDEST PUSH2 0x24E CALLVALUE PUSH1 0x2 SLOAD PUSH2 0x249 SWAP2 SWAP1 PUSH2 0x748 JUMP JUMPDEST PUSH2 0x358 JUMP JUMPDEST PUSH2 0x256 PUSH2 0x3A8 JUMP JUMPDEST DUP3 DUP3 PUSH0 SWAP2 DUP3 PUSH2 0x266 SWAP3 SWAP2 SWAP1 PUSH2 0x9AC JUMP JUMPDEST POP DUP1 PUSH1 0x1 PUSH0 PUSH2 0x100 EXP DUP2 SLOAD DUP2 PUSH20 0xFFFFFFFFFFFFFFFFFFFFFFFFFFFFFFFFFFFFFFFF MUL NOT AND SWAP1 DUP4 PUSH20 0xFFFFFFFFFFFFFFFFFFFFFFFFFFFFFFFFFFFFFFFF AND MUL OR SWAP1 SSTORE POP PUSH1 0x1 PUSH1 0x3 PUSH1 0x14 PUSH2 0x100 EXP DUP2 SLOAD DUP2 PUSH1 0xFF MUL NOT AND SWAP1 DUP4 ISZERO ISZERO MUL OR SWAP1 SSTORE POP POP POP POP JUMP JUMPDEST PUSH1 0x2 SLOAD DUP2 JUMP JUMPDEST PUSH0 DUP1 SLOAD PUSH2 0x2D9 SWAP1 PUSH2 0x7DF JUMP JUMPDEST DUP1 PUSH1 0x1F ADD PUSH1 0x20 DUP1 SWAP2 DIV MUL PUSH1 0x20 ADD PUSH1 0x40 MLOAD SWAP1 DUP2 ADD PUSH1 0x40 MSTORE DUP1 SWAP3 SWAP2 SWAP1 DUP2 DUP2 MSTORE PUSH1 0x20 ADD DUP3 DUP1 SLOAD PUSH2 0x305 SWAP1 PUSH2 0x7DF JUMP JUMPDEST DUP1 ISZERO PUSH2 0x350 JUMPI DUP1 PUSH1 0x1F LT PUSH2 0x327 JUMPI PUSH2 0x100 DUP1 DUP4 SLOAD DIV MUL DUP4 MSTORE SWAP2 PUSH1 0x20 ADD SWAP2 PUSH2 0x350 JUMP JUMPDEST DUP3 ADD SWAP2 SWAP1 PUSH0 MSTORE PUSH1 0x20 PUSH0 KECCAK256 SWAP1 JUMPDEST DUP2 SLOAD DUP2 MSTORE SWAP1 PUSH1 0x1 ADD SWAP1 PUSH1 0x20 ADD DUP1 DUP4 GT PUSH2 0x333 JUMPI DUP3 SWAP1 SUB PUSH1 0x1F AND DUP3 ADD SWAP2 JUMPDEST POP POP POP POP POP DUP2 JUMP JUMPDEST PUSH0 DUP2 GT ISZERO PUSH2 0x3A5 JUMPI CALLER PUSH20 0xFFFFFFFFFFFFFFFFFFFFFFFFFFFFFFFFFFFFFFFF AND PUSH2 0x8FC DUP3 SWAP1 DUP2 ISZERO MUL SWAP1 PUSH1 0x40 MLOAD PUSH0 PUSH1 0x40 MLOAD DUP1 DUP4 SUB DUP2 DUP6 DUP9 DUP9 CALL SWAP4 POP POP POP POP ISZERO DUP1 ISZERO PUSH2 0x3A3 JUMPI RETURNDATASIZE PUSH0 DUP1 RETURNDATACOPY RETURNDATASIZE PUSH0 REVERT JUMPDEST POP JUMPDEST POP JUMP JUMPDEST PUSH1 0x3 PUSH0 SWAP1 SLOAD SWAP1 PUSH2 0x100 EXP SWAP1 DIV PUSH20 0xFFFFFFFFFFFFFFFFFFFFFFFFFFFFFFFFFFFFFFFF AND PUSH20 0xFFFFFFFFFFFFFFFFFFFFFFFFFFFFFFFFFFFFFFFF AND PUSH2 0x8FC SELFBALANCE SWAP1 DUP2 ISZERO MUL SWAP1 PUSH1 0x40 MLOAD PUSH0 PUSH1 0x40 MLOAD DUP1 DUP4 SUB DUP2 DUP6 DUP9 DUP9 CALL SWAP4 POP POP POP POP ISZERO DUP1 ISZERO PUSH2 0x40C JUMPI RETURNDATASIZE PUSH0 DUP1 RETURNDATACOPY RETURNDATASIZE PUSH0 REVERT JUMPDEST POP JUMP JUMPDEST PUSH0 PUSH20 0xFFFFFFFFFFFFFFFFFFFFFFFFFFFFFFFFFFFFFFFF DUP3 AND SWAP1 POP SWAP2 SWAP1 POP JUMP JUMPDEST PUSH0 PUSH2 0x438 DUP3 PUSH2 0x40F JUMP JUMPDEST SWAP1 POP SWAP2 SWAP1 POP JUMP JUMPDEST PUSH2 0x448 DUP2 PUSH2 0x42E JUMP JUMPDEST DUP3 MSTORE POP POP JUMP JUMPDEST PUSH0 PUSH1 0x20 DUP3 ADD SWAP1 POP PUSH2 0x461 PUSH0 DUP4 ADD DUP5 PUSH2 0x43F JUMP JUMPDEST SWAP3 SWAP2 POP POP JUMP JUMPDEST PUSH0 DUP2 ISZERO ISZERO SWAP1 POP SWAP2 SWAP1 POP JUMP JUMPDEST PUSH2 0x47B DUP2 PUSH2 0x467 JUMP JUMPDEST DUP3 MSTORE POP POP JUMP JUMPDEST PUSH0 PUSH1 0x20 DUP3 ADD SWAP1 POP PUSH2 0x494 PUSH0 DUP4 ADD DUP5 PUSH2 0x472 JUMP JUMPDEST SWAP3 SWAP2 POP POP JUMP JUMPDEST PUSH0 DUP1 REVERT JUMPDEST PUSH0 DUP1 REVERT JUMPDEST PUSH0 DUP1 REVERT JUMPDEST PUSH0 DUP1 REVERT JUMPDEST PUSH0 DUP1 REVERT JUMPDEST PUSH0 DUP1 DUP4 PUSH1 0x1F DUP5 ADD SLT PUSH2 0x4C3 JUMPI PUSH2 0x4C2 PUSH2 0x4A2 JUMP JUMPDEST JUMPDEST DUP3 CALLDATALOAD SWAP1 POP PUSH8 0xFFFFFFFFFFFFFFFF DUP2 GT ISZERO PUSH2 0x4E0 JUMPI PUSH2 0x4DF PUSH2 0x4A6 JUMP JUMPDEST JUMPDEST PUSH1 0x20 DUP4 ADD SWAP2 POP DUP4 PUSH1 0x1 DUP3 MUL DUP4 ADD GT ISZERO PUSH2 0x4FC JUMPI PUSH2 0x4FB PUSH2 0x4AA JUMP JUMPDEST JUMPDEST SWAP3 POP SWAP3 SWAP1 POP JUMP JUMPDEST PUSH2 0x50C DUP2 PUSH2 0x42E JUMP JUMPDEST DUP2 EQ PUSH2 0x516 JUMPI PUSH0 DUP1 REVERT JUMPDEST POP JUMP JUMPDEST PUSH0 DUP2 CALLDATALOAD SWAP1 POP PUSH2 0x527 DUP2 PUSH2 0x503 JUMP JUMPDEST SWAP3 SWAP2 POP POP JUMP JUMPDEST PUSH0 DUP1 PUSH0 PUSH1 0x40 DUP5 DUP7 SUB SLT ISZERO PUSH2 0x544 JUMPI PUSH2 0x543 PUSH2 0x49A JUMP JUMPDEST JUMPDEST PUSH0 DUP5 ADD CALLDATALOAD PUSH8 0xFFFFFFFFFFFFFFFF DUP2 GT ISZERO PUSH2 0x561 JUMPI PUSH2 0x560 PUSH2 0x49E JUMP JUMPDEST JUMPDEST PUSH2 0x56D DUP7 DUP3 DUP8 ADD PUSH2 0x4AE JUMP JUMPDEST SWAP4 POP SWAP4 POP POP PUSH1 0x20 PUSH2 0x580 DUP7 DUP3 DUP8 ADD PUSH2 0x519 JUMP JUMPDEST SWAP2 POP POP SWAP3 POP SWAP3 POP SWAP3 JUMP JUMPDEST PUSH0 DUP2 SWAP1 POP SWAP2 SWAP1 POP JUMP JUMPDEST PUSH2 0x59C DUP2 PUSH2 0x58A JUMP JUMPDEST DUP3 MSTORE POP POP JUMP JUMPDEST PUSH0 PUSH1 0x20 DUP3 ADD SWAP1 POP PUSH2 0x5B5 PUSH0 DUP4 ADD DUP5 PUSH2 0x593 JUMP JUMPDEST SWAP3 SWAP2 POP POP JUMP JUMPDEST PUSH0 DUP2 MLOAD SWAP1 POP SWAP2 SWAP1 POP JUMP JUMPDEST PUSH0 DUP3 DUP3 MSTORE PUSH1 0x20 DUP3 ADD SWAP1 POP SWAP3 SWAP2 POP POP JUMP JUMPDEST DUP3 DUP2 DUP4 MCOPY PUSH0 DUP4 DUP4 ADD MSTORE POP POP POP JUMP JUMPDEST PUSH0 PUSH1 0x1F NOT PUSH1 0x1F DUP4 ADD AND SWAP1 POP SWAP2 SWAP1 POP JUMP JUMPDEST PUSH0 PUSH2 0x5FD DUP3 PUSH2 0x5BB JUMP JUMPDEST PUSH2 0x607 DUP2 DUP6 PUSH2 0x5C5 JUMP JUMPDEST SWAP4 POP PUSH2 0x617 DUP2 DUP6 PUSH1 0x20 DUP7 ADD PUSH2 0x5D5 JUMP JUMPDEST PUSH2 0x620 DUP2 PUSH2 0x5E3 JUMP JUMPDEST DUP5 ADD SWAP2 POP POP SWAP3 SWAP2 POP POP JUMP JUMPDEST PUSH0 PUSH1 0x20 DUP3 ADD SWAP1 POP DUP2 DUP2 SUB PUSH0 DUP4 ADD MSTORE PUSH2 0x643 DUP2 DUP5 PUSH2 0x5F3 JUMP JUMPDEST SWAP1 POP SWAP3 SWAP2 POP POP JUMP JUMPDEST PUSH32 0x556D2070657266696C206A61206573746120677561726461646F210000000000 PUSH0 DUP3 ADD MSTORE POP JUMP JUMPDEST PUSH0 PUSH2 0x67F PUSH1 0x1B DUP4 PUSH2 0x5C5 JUMP JUMPDEST SWAP2 POP PUSH2 0x68A DUP3 PUSH2 0x64B JUMP JUMPDEST PUSH1 0x20 DUP3 ADD SWAP1 POP SWAP2 SWAP1 POP JUMP JUMPDEST PUSH0 PUSH1 0x20 DUP3 ADD SWAP1 POP DUP2 DUP2 SUB PUSH0 DUP4 ADD MSTORE PUSH2 0x6AC DUP2 PUSH2 0x673 JUMP JUMPDEST SWAP1 POP SWAP2 SWAP1 POP JUMP JUMPDEST PUSH32 0x507265636973612072656365626572206F2076616C6F7220636F727265746F21 PUSH0 DUP3 ADD MSTORE POP JUMP JUMPDEST PUSH0 PUSH2 0x6E7 PUSH1 0x20 DUP4 PUSH2 0x5C5 JUMP JUMPDEST SWAP2 POP PUSH2 0x6F2 DUP3 PUSH2 0x6B3 JUMP JUMPDEST PUSH1 0x20 DUP3 ADD SWAP1 POP SWAP2 SWAP1 POP JUMP JUMPDEST PUSH0 PUSH1 0x20 DUP3 ADD SWAP1 POP DUP2 DUP2 SUB PUSH0 DUP4 ADD MSTORE PUSH2 0x714 DUP2 PUSH2 0x6DB JUMP JUMPDEST SWAP1 POP SWAP2 SWAP1 POP JUMP JUMPDEST PUSH32 0x4E487B7100000000000000000000000000000000000000000000000000000000 PUSH0 MSTORE PUSH1 0x11 PUSH1 0x4 MSTORE PUSH1 0x24 PUSH0 REVERT JUMPDEST PUSH0 PUSH2 0x752 DUP3 PUSH2 0x58A JUMP JUMPDEST SWAP2 POP PUSH2 0x75D DUP4 PUSH2 0x58A JUMP JUMPDEST SWAP3 POP DUP3 DUP3 SUB SWAP1 POP DUP2 DUP2 GT ISZERO PUSH2 0x775 JUMPI PUSH2 0x774 PUSH2 0x71B JUMP JUMPDEST JUMPDEST SWAP3 SWAP2 POP POP JUMP JUMPDEST PUSH0 DUP3 SWAP1 POP SWAP3 SWAP2 POP POP JUMP JUMPDEST PUSH32 0x4E487B7100000000000000000000000000000000000000000000000000000000 PUSH0 MSTORE PUSH1 0x41 PUSH1 0x4 MSTORE PUSH1 0x24 PUSH0 REVERT JUMPDEST PUSH32 0x4E487B7100000000000000000000000000000000000000000000000000000000 PUSH0 MSTORE PUSH1 0x22 PUSH1 0x4 MSTORE PUSH1 0x24 PUSH0 REVERT JUMPDEST PUSH0 PUSH1 0x2 DUP3 DIV SWAP1 POP PUSH1 0x1 DUP3 AND DUP1 PUSH2 0x7F6 JUMPI PUSH1 0x7F DUP3 AND SWAP2 POP JUMPDEST PUSH1 0x20 DUP3 LT DUP2 SUB PUSH2 0x809 JUMPI PUSH2 0x808 PUSH2 0x7B2 JUMP JUMPDEST JUMPDEST POP SWAP2 SWAP1 POP JUMP JUMPDEST PUSH0 DUP2 SWAP1 POP DUP2 PUSH0 MSTORE PUSH1 0x20 PUSH0 KECCAK256 SWAP1 POP SWAP2 SWAP1 POP JUMP JUMPDEST PUSH0 PUSH1 0x20 PUSH1 0x1F DUP4 ADD DIV SWAP1 POP SWAP2 SWAP1 POP JUMP JUMPDEST PUSH0 DUP3 DUP3 SHL SWAP1 POP SWAP3 SWAP2 POP POP JUMP JUMPDEST PUSH0 PUSH1 0x8 DUP4 MUL PUSH2 0x86B PUSH32 0xFFFFFFFFFFFFFFFFFFFFFFFFFFFFFFFFFFFFFFFFFFFFFFFFFFFFFFFFFFFFFFFF DUP3 PUSH2 0x830 JUMP JUMPDEST PUSH2 0x875 DUP7 DUP4 PUSH2 0x830 JUMP JUMPDEST SWAP6 POP DUP1 NOT DUP5 AND SWAP4 POP DUP1 DUP7 AND DUP5 OR SWAP3 POP POP POP SWAP4 SWAP3 POP POP POP JUMP JUMPDEST PUSH0 DUP2 SWAP1 POP SWAP2 SWAP1 POP JUMP JUMPDEST PUSH0 PUSH2 0x8B0 PUSH2 0x8AB PUSH2 0x8A6 DUP5 PUSH2 0x58A JUMP JUMPDEST PUSH2 0x88D JUMP JUMPDEST PUSH2 0x58A JUMP JUMPDEST SWAP1 POP SWAP2 SWAP1 POP JUMP JUMPDEST PUSH0 DUP2 SWAP1 POP SWAP2 SWAP1 POP JUMP JUMPDEST PUSH2 0x8C9 DUP4 PUSH2 0x896 JUMP JUMPDEST PUSH2 0x8DD PUSH2 0x8D5 DUP3 PUSH2 0x8B7 JUMP JUMPDEST DUP5 DUP5 SLOAD PUSH2 0x83C JUMP JUMPDEST DUP3 SSTORE POP POP POP POP JUMP JUMPDEST PUSH0 SWAP1 JUMP JUMPDEST PUSH2 0x8F1 PUSH2 0x8E5 JUMP JUMPDEST PUSH2 0x8FC DUP2 DUP5 DUP5 PUSH2 0x8C0 JUMP JUMPDEST POP POP POP JUMP JUMPDEST JUMPDEST DUP2 DUP2 LT ISZERO PUSH2 0x91F JUMPI PUSH2 0x914 PUSH0 DUP3 PUSH2 0x8E9 JUMP JUMPDEST PUSH1 0x1 DUP2 ADD SWAP1 POP PUSH2 0x902 JUMP JUMPDEST POP POP JUMP JUMPDEST PUSH1 0x1F DUP3 GT ISZERO PUSH2 0x964 JUMPI PUSH2 0x935 DUP2 PUSH2 0x80F JUMP JUMPDEST PUSH2 0x93E DUP5 PUSH2 0x821 JUMP JUMPDEST DUP2 ADD PUSH1 0x20 DUP6 LT ISZERO PUSH2 0x94D JUMPI DUP2 SWAP1 POP JUMPDEST PUSH2 0x961 PUSH2 0x959 DUP6 PUSH2 0x821 JUMP JUMPDEST DUP4 ADD DUP3 PUSH2 0x901 JUMP JUMPDEST POP POP JUMPDEST POP POP POP JUMP JUMPDEST PUSH0 DUP3 DUP3 SHR SWAP1 POP SWAP3 SWAP2 POP POP JUMP JUMPDEST PUSH0 PUSH2 0x984 PUSH0 NOT DUP5 PUSH1 0x8 MUL PUSH2 0x969 JUMP JUMPDEST NOT DUP1 DUP4 AND SWAP2 POP POP SWAP3 SWAP2 POP POP JUMP JUMPDEST PUSH0 PUSH2 0x99C DUP4 DUP4 PUSH2 0x975 JUMP JUMPDEST SWAP2 POP DUP3 PUSH1 0x2 MUL DUP3 OR SWAP1 POP SWAP3 SWAP2 POP POP JUMP JUMPDEST PUSH2 0x9B6 DUP4 DUP4 PUSH2 0x77B JUMP JUMPDEST PUSH8 0xFFFFFFFFFFFFFFFF DUP2 GT ISZERO PUSH2 0x9CF JUMPI PUSH2 0x9CE PUSH2 0x785 JUMP JUMPDEST JUMPDEST PUSH2 0x9D9 DUP3 SLOAD PUSH2 0x7DF JUMP JUMPDEST PUSH2 0x9E4 DUP3 DUP3 DUP6 PUSH2 0x923 JUMP JUMPDEST PUSH0 PUSH1 0x1F DUP4 GT PUSH1 0x1 DUP2 EQ PUSH2 0xA11 JUMPI PUSH0 DUP5 ISZERO PUSH2 0x9FF JUMPI DUP3 DUP8 ADD CALLDATALOAD SWAP1 POP JUMPDEST PUSH2 0xA09 DUP6 DUP3 PUSH2 0x991 JUMP JUMPDEST DUP7 SSTORE POP PUSH2 0xA70 JUMP JUMPDEST PUSH1 0x1F NOT DUP5 AND PUSH2 0xA1F DUP7 PUSH2 0x80F JUMP JUMPDEST PUSH0 JUMPDEST DUP3 DUP2 LT ISZERO PUSH2 0xA46 JUMPI DUP5 DUP10 ADD CALLDATALOAD DUP3 SSTORE PUSH1 0x1 DUP3 ADD SWAP2 POP PUSH1 0x20 DUP6 ADD SWAP5 POP PUSH1 0x20 DUP2 ADD SWAP1 POP PUSH2 0xA21 JUMP JUMPDEST DUP7 DUP4 LT ISZERO PUSH2 0xA63 JUMPI DUP5 DUP10 ADD CALLDATALOAD PUSH2 0xA5F PUSH1 0x1F DUP10 AND DUP3 PUSH2 0x975 JUMP JUMPDEST DUP4 SSTORE POP JUMPDEST PUSH1 0x1 PUSH1 0x2 DUP9 MUL ADD DUP9 SSTORE POP POP POP JUMPDEST POP POP POP POP POP POP POP JUMP INVALID LOG2 PUSH5 0x6970667358 0x22 SLT KECCAK256 0xBB PUSH3 0x4E97C 0xC9 0x29 0xD2 DUP9 NOT SWAP3 SELFDESTRUCT PUSH4 0xF05271BB 0xAB SELFDESTRUCT SWAP3 PUSH22 0x75A32D0B21CD3830EE79C764736F6C634300081A0033 "
				},
				"gasEstimates": {
					"creation": {
						"codeDepositCost": "547000",
						"executionCost": "infinite",
						"totalCost": "infinite"
					},
					"external": {
						"criador()": "2486",
						"dono()": "2508",
						"guardar(string,address)": "infinite",
						"perfil()": "infinite",
						"preco()": "2491",
						"utilizado()": "2539"
					},
					"internal": {
						"envia_pagamento()": "infinite",
						"envia_troco(uint256)": "infinite"
					}
				},
				"methodIdentifiers": {
					"criador()": "041c797c",
					"dono()": "70514bea",
					"guardar(string,address)": "9e23d809",
					"perfil()": "df2765e8",
					"preco()": "d8787a86",
					"utilizado()": "814b016c"
				}
			},
			"storageLayout": {
				"storage": [
					{
						"astId": 3,
						"contract": "Modulo 2/Copy_RedeSocialNotarizada2.sol:RedeSocialNotarizada",
						"label": "perfil",
						"offset": 0,
						"slot": "0",
						"type": "t_string_storage"
					},
					{
						"astId": 5,
						"contract": "Modulo 2/Copy_RedeSocialNotarizada2.sol:RedeSocialNotarizada",
						"label": "dono",
						"offset": 0,
						"slot": "1",
						"type": "t_address"
					},
					{
						"astId": 7,
						"contract": "Modulo 2/Copy_RedeSocialNotarizada2.sol:RedeSocialNotarizada",
						"label": "preco",
						"offset": 0,
						"slot": "2",
						"type": "t_uint256"
					},
					{
						"astId": 9,
						"contract": "Modulo 2/Copy_RedeSocialNotarizada2.sol:RedeSocialNotarizada",
						"label": "criador",
						"offset": 0,
						"slot": "3",
						"type": "t_address"
					},
					{
						"astId": 11,
						"contract": "Modulo 2/Copy_RedeSocialNotarizada2.sol:RedeSocialNotarizada",
						"label": "utilizado",
						"offset": 20,
						"slot": "3",
						"type": "t_bool"
					}
				],
				"types": {
					"t_address": {
						"encoding": "inplace",
						"label": "address",
						"numberOfBytes": "20"
					},
					"t_bool": {
						"encoding": "inplace",
						"label": "bool",
						"numberOfBytes": "1"
					},
					"t_string_storage": {
						"encoding": "bytes",
						"label": "string",
						"numberOfBytes": "32"
					},
					"t_uint256": {
						"encoding": "inplace",
						"label": "uint256",
						"numberOfBytes": "32"
					}
				}
			},
			"userdoc": {
				"kind": "user",
				"methods": {},
				"version": 1
			}
		}
	}
}